:020000041FFFDC
:1080000000800020F582FF1F2183FF1F2183FF1FB7
:108010002183FF1F2183FF1F2183FF1F000000001A
:108020000000000000000000000000003584FF1F79
:108030002183FF1F00000000E184FF1F3985FF1F1F
:108040002183FF1F2183FF1F2183FF1F2183FF1F28
:108050002183FF1F2183FF1F2183FF1F2183FF1F18
:108060002183FF1F2183FF1F2183FF1F2183FF1F08
:108070002183FF1F2183FF1F2183FF1F2183FF1FF8
:108080002183FF1F2183FF1F2183FF1F2183FF1FE8
:108090002183FF1F2183FF1F2183FF1F2183FF1FD8
:1080A0002183FF1F2183FF1F2183FF1F2183FF1FC8
:1080B0002183FF1F2183FF1F2183FF1F2183FF1FB8
:1080C0002183FF1F2183FF1F2183FF1F2183FF1FA8
:1080D0002183FF1F2183FF1F2183FF1F2183FF1F98
:1080E0002183FF1F2183FF1F2183FF1F2183FF1F88
:1080F0002183FF1F2183FF1F2183FF1F2183FF1F78
:108100002183FF1F2183FF1F2183FF1F2183FF1F67
:108110002183FF1F2183FF1F2183FF1F2183FF1F57
:108120002183FF1F2183FF1F2183FF1F2183FF1F47
:108130002183FF1F2183FF1F2183FF1F2183FF1F37
:108140002183FF1F2183FF1F2183FF1F2183FF1F27
:108150002183FF1F2183FF1F2183FF1F2183FF1F17
:108160002183FF1F2183FF1F2183FF1F2183FF1F07
:108170002183FF1F2183FF1F2183FF1F2183FF1FF7
:108180002183FF1F2183FF1F2183FF1F2183FF1FE7
:108190002183FF1F2183FF1F2183FF1F2183FF1FD7
:1081A0002183FF1F2183FF1F2183FF1F2183FF1FC7
:1081B0002183FF1F2183FF1F2183FF1F2183FF1FB7
:1081C0002183FF1F2183FF1F2183FF1F0188FF1FC2
:1081D0002183FF1F2183FF1F2183FF1F2183FF1F97
:1081E0002183FF1F2183FF1F2183FF1F2183FF1F87
:1081F0002183FF1F2183FF1F2183FF1F2183FF1F77
:108200002183FF1F2183FF1F2183FF1F2183FF1F66
:108210002183FF1F2183FF1F2183FF1F2183FF1F56
:108220002183FF1F2183FF1F2183FF1F2183FF1F46
:108230002183FF1F2183FF1F2183FF1F2183FF1F36
:1082400010B5054C237833B9044B13B10448AFF390
:1082500000800123237010BDD00100200000000029
:1082600058CCFF1F08B5034B1BB103490348AFF3BC
:10827000008008BD00000000D401002058CCFF1F82
:10828000154B002B08BF134B9D46A3F5803A0021E8
:108290008B460F461348144A121A03F0BAF90F4BD3
:1082A000002B00D098470E4B002B00D098470020A1
:1082B000002104000D000D48002802D00C48AFF347
:1082C000008003F077F92000290000F09BFA03F00A
:1082D0004BF900BF000008000080002000000000F3
:1082E00000000000D0010020C0530020000000006A
:1082F0000000000072B602F069FF0649064A074B0B
:108300009A42BEBF51F8040B42F8040BF8E762B67C
:10831000FFF7B6FF80CCFF1F00000020D001002037
:10832000FFF7FEBF034613F8012B002AFBD1181AF2
:10833000013870470000000000000000000000004D
:1083400001F0FF01102A2BDB10F0070F08D010F806
:10835000013B013A8B422DD010F0070F42B3F6D10A
:10836000F0B441EA012141EA014122F007047FF023
:1083700000070023F0E80256083C85EA010586EA7A
:10838000010685FA47F5A3FA87F586FA47F6A5FAB6
:1083900087F68EB9EED1F0BC01F0FF0102F00702C2
:1083A00032B110F8013B013A83EA010313B1F8D16D
:1083B0000020704701387047002D06BF354603384E
:1083C000073815F0010F07D1013015F4807F02BF87
:1083D000013015F4C03F0130F0BC0138704700BFD8
:1083E00005480068006880F3088862B6BFF34F8FC5
:1083F000BFF36F8F00DF00BF08ED00E0DFF80C0077
:10840000016841F4700101607047000088ED00E0F0
:108410004FF0807340E90213054B40F80C3C6FF0BD
:10842000020340F8202C40F8243C4438704700BF39
:108430007D84FF1F064B19680868B0E8F04F80F391
:108440000988BFF36F8F4FF0000080F311887047E9
:10845000BC520020044B4FF080521A60BFF34F8F84
:10846000BFF36F8F704700BF04ED00E0EFF31180A2
:108470004FF0200181F311887047002008B5054BAB
:108480001B68013302D0FFF7F1FFFEE7FFF7EEFFB5
:10849000FEE700BF0000002008B5FFF7E7FF044A31
:1084A000136801331360BFF34F8FBFF36F8F08BDA5
:1084B0000000002080F311887047000008B5074BCA
:1084C000186810B9FFF7D2FFFEE70138186018B935
:1084D000BDE80840FFF7EEBF08BD00BF0000002068
:1084E000EFF30980BFF36F8F124B1A681EF0100F65
:1084F00008BF20ED108A20E9F04F10604DF8043DD0
:108500004FF0200080F3118802F07EFA4FF0000057
:1085100080F3118808BC19680868B0E8F04F1EF0B5
:10852000100F08BFB0EC108A80F30988BFF36F8F7B
:10853000704700BFBC52002008B5FFF797FF02F05C
:108540004FF918B1044B4FF080521A600020BDE87B
:108550000840FFF7AFBF00BF04ED00E0034B044A43
:108560001A60072243F8042C704700BF14E000E0B3
:10857000B776030013B5234B1A78D2B20192FF22CB
:108580001A701B78204ADBB28DF803309DF8033057
:1085900003F0200313701D4B07221A6000219DF881
:1085A0000300000602F1FF3423D401B11A601A68F7
:1085B000120202F4E0621A60019B124ADBB21370ED
:1085C000134B1A6842F470021A601A6842F0704243
:1085D0001A60FFF7C3FF0F4B00221A60FFF70EFF70
:1085E0000D4A136843F040431360FFF7F9FEFFF7AD
:1085F00045FF9DF803205200D2B28DF803200121DF
:108600002246CCE700E400E0EC010020F00100206D
:1086100020ED00E00000002034EF00E008B5EFF3AB
:1086200005830F2B08D90A4A9B5C0A4A12789A42A2
:1086300002D9FFF71BFFFEE7074B084A1B681268C9
:1086400003F4E063934202D9FFF710FFFEE708BD91
:10865000F0E300E0EC0100200CED00E0F001002070
:1086600070B5044602F0B4F82548016871B9254B8D
:10867000254A23F00703C2E90031244A44F6F8757D
:10868000C2E90015C3E90025012303602CB10834B9
:1086900063071CBF24F007040834621E44F6F67317
:1086A0009A422BD8184A13685968A14201D2196816
:1086B000F9B916498B4221D01968156811605968BB
:1086C000091B102905F108050AD91A1951605C60C7
:1086D00054680D4908684668A6420DD310600A60C8
:1086E0000B495B680A68D21A0A6002F005F928464D
:1086F00070BD1A460B46D7E70146EBE70025F4E7C5
:10870000FC510020FC01002000520020F451002008
:108710000400002038B50446C8B1A0F1080502F0F5
:1087200057F854F8041C0A4B1A68506888420CD356
:1087300044F8082C074A1D6054F8043C11680B44A7
:108740001360BDE8384002F0D7B81346ECE738BDF7
:10875000005200200400002010B586B000242148FB
:108760000494CDE9024402F0BFFA1F4802F0BCFABB
:1087700003AB012202A9204600F0D2F828B11B4B1E
:108780001B4A4A211B4802F0D1FE039B1A481B4C8E
:10879000D3E9081202F0A8FA00234FF0FF32CDE926
:1087A00000320398042305AA04A9C06A00F01AF94C
:1087B00018B10E4B0E4A5221E4E70499204602F00C
:1087C00093FA049B0398013304930422436AC06A1A
:1087D00004A900F041F90028DED0044B044A5621D8
:1087E000D0E700BF20C5FF1F4DC5FF1F64C5FF1F99
:1087F00071C6FF1F70C5FF1F04C6FF1F50C6FF1FB5
:1088000000F07EB91FB502F07FFD0E4A0E49536A93
:108810000E4823F007031B041B0C53620C4B302241
:1088200083F863230822DA6000230122CDE90233B2
:10883000019300924FF4807201F0CEFE01F09EFF92
:10884000FEE700BF00C029427EC6FF1F5987FF1FF9
:1088500000E100E008B528B9044B054A0548682145
:1088600002F064FE044B00221A6008BDFBC6FF1F25
:10887000A8C6FF1F03C7FF1F0C52002030B50446D7
:1088800085B00D462BB90E4B0E4A7F210E4802F0E3
:108890004DFE18B90D4B0B4A8021F7E7029104A950
:1088A000ADF80C20089A41F80C2D1846002201F072
:1088B0004BFB18B12946204600F081FD05B030BDC4
:1088C0007BC7FF1FC3C6FF1F03C7FF1FFBC6FF1FDA
:1088D00008B508B1C36A2BB90A4B0B4A5A210B4899
:1088E00002F024FE0A4A12681AB90A4B064A5C21B1
:1088F000F5E7DA60084B1860084B1868BDE80840D7
:1089000001F084BAD6C6FF1F8DC6FF1F03C7FF1F25
:1089100010520020F1C6FF1F0C5200200852002008
:108920002DE9F047264C98462368A6B005468A46AE
:10893000174623B1234D284626B0BDE8F0870146EF
:1089400002A800F08DF90146002836D1204601F03A
:1089500039FA0028EED12368002BEBD0DFF88090A5
:10896000194B012F0CBFBDF84C10BDF82C1019602D
:108970000C22484601F0DAFA064610B9D9F8003060
:108980001BB9206801F020FAD4E7104B104A00937D
:108990005146104B0197284600F047FC05462068D9
:1089A00001F016FA206801F00FFA0B4B26601B68E5
:1089B000002BBFD0C8F80030BDE7084DBBE700BFB3
:1089C0000852002047F4FFFF145200207D88FF1F4B
:1089D000D188FF1F5588FF1F0C52002041F4FFFF74
:1089E000105200202DE9FF41DDF82880054617468A
:1089F0001E460C4631B328B303681BB39B6A0BB306
:108A00000B9AC06801A901F0C5FAE8B1B8F1000FEE
:108A100002D0019BC8F80030BDF90C3007B13B60B3
:108A20009E420DDB20463246029902F0E7FD00240B
:108A30000299286800F0CCFC204604B0BDE8F08123
:108A4000024CF5E7024CF7E7024CF5E742F4FFFF72
:108A500044F4FFFF46F4FFFF37B5154604461A46B7
:108A60000B4661B158B1006848B1816A39B1012142
:108A7000CDE90051A16800F0F9FB03B030BD014819
:108A8000FBE700BF44F4FFFF08B5034A034B04486B
:108A90004B2102F04BFD00BF8AC7FF1F9BC9FF1F80
:108AA0000AC8FF1F08B5034A034B0448442102F0DB
:108AB0003DFD00BF80C7FF1F9BC9FF1F0AC8FF1FE6
:108AC0000A6802481204012102F0FABC00C02942DF
:108AD00008B50146064A006901F0B8F9054A536A2B
:108AE00023F4702343F080635362002008BD00BF6D
:108AF000F98AFF1F00C02942084600F0F9B80000BB
:108B000007B5012101AA054802F0F2FC18B9BDF829
:108B1000060001F0DDF903B05DF804FB00C0294256
:108B2000034B5868C0F30800003018BF012070479D
:108B300000ED00E0012808B505D90D4B0D4AAD2127
:108B40000D4802F0F3FC0D4B53F82020002A03DC03
:108B50000B4B084AAE21F3E7013A43F820201A688C
:108B600022B95B6813B9074B0822DA6008BD00BF61
:108B7000C6C8FF1F98C7FF1F0AC8FF1F1C5200204E
:108B8000ECC8FF1F00E100E0012810B505D90E4B2D
:108B90000E4AC7210E4802F0C9FC0E4B53F82020A4
:108BA000002A07DB196809B9596839B1013243F85D
:108BB000202010BD084B054AC821EBE707490824CF
:108BC000C1F88C40F2E700BFC6C8FF1FB2C7FF1F45
:108BD0000AC8FF1F1C5200208CC8FF1F00E100E0E4
:108BE00008B50A4B1A68002A05DC094B094A0A48ED
:108BF000E32102F09BFC013A1A602AB911461046A3
:108C0000BDE80840FFF796BF08BD00BF185200201E
:108C10000CC9FF1FCDC7FF1F0AC8FF1F38B5084D7D
:108C20002C68002C05DA074B074A0848F12102F0AE
:108C30007DFC02D12046FFF7A7FF01342C6038BD30
:108C400018520020ADC8FF1FEBC7FF1F0AC8FF1F47
:108C50007047704770470020704700207047000041
:108C600008B54B1C0A4B0ED01A688A420BD0D3F8B9
:108C70009020914209D10121902202FB013101F0A3
:108C800065F8002008BD0021F6E74FF0FF30F9E756
:108C90002400002070B5154B1D68064675B990205C
:108CA00001F04EF8044638B13146FFF7D9FF58B10C
:108CB000204601F047F82C46204670BD2C682368FA
:108CC000B342F9D0AD68E9E7D4E90112412308467F
:108CD00001F0F6F8102001F033F801460028E7D043
:108CE0000460024800F032F8E6E700BF245200209A
:108CF000006800F0DBBFC36D0B606030704750F858
:108D00000C3B0B6070470430704708B50B681A685D
:108D1000430103F11C0013441044D961D2F88030A0
:108D20001B6803B19847002008BD0368818C1B684D
:108D3000D3F88020926822B103EB41112C311868DE
:108D400010477047002070470020704761B10368EA
:108D500033B18B600023CB600368D960016070473A
:108D600001608B600268D3607047026862B159B1DC
:108D70008A428B6801D103607047CA68936003B967
:108D80007047D1E90232DA6070472DE9F8431546A1
:108D9000804618B900242046BDE8F8830029F9D0A0
:108DA000002AF7D093071CBF22F003050435B1FB5E
:108DB000F5F605FB1611002918BF013616F01F0342
:108DC00018BF0123202796FBF7F71F4407F1080976
:108DD0004FEA8909484600F0B3FF04460028D9D07D
:108DE00000214A4600F0B0FF0121201D00F0BBFF2A
:108DF00018B1204600F0A6FFCCE7C4F80080E5607B
:108E0000A7612661C7E738B504460D4619B310B30C
:108E1000486800F0B5FF2868EB68201A90FBF3F073
:108E2000424202F01F024FF0200390FBF3F305EBE8
:108E3000830300F01F0058BF5042012202FA00F0E5
:108E4000DA694240DA616B696868013B6B61BDE8D1
:108E5000384000F0A6BF38BD10B5044638B14068B0
:108E600000F08CFF2046BDE8104000F06BBF10BD45
:108E7000431C23EA00000D4B0D4A013803EA50035E
:108E8000C31A02EA90001B1A03EBD30323F06353C7
:108E900023F40E1323F4636323F008033F20B3FB92
:108EA000F0F0C0EB8010181A704700BFDBB66DDB26
:108EB000499224492DE9F041044688B3406800F006
:108EC0005FFFD4E90431994208DAD4F8188004F13C
:108ED0001C060025A84508DC00251BE0606800F0A2
:108EE00060FF00252846BDE8F08156F8047B38462F
:108EF000FFF7BEFF1F2811DC012304EB850283402E
:108F00003B43D36100EB4510E3682568013103FB67
:108F100000556161606800F044FFE3E70135D9E77F
:108F20000546DFE7002070477047C0687047C36898
:108F30001943C160704700207047704770470000B8
:108F40002DE9F0430446006A8FB004A9103015469D
:108F50001F46DDF85880FFF7D2FE049BAB426ADC67
:108F6000DFF8E49005460026049B216DB34209DC3E
:108F70000129DDE9053231D1C4E9062300200FB013
:108F8000BDE8F08368680790EB6808932A89ADF81C
:108F9000242079B9B5F808C05A1E02EB0C120CF166
:108FA000040E02EB4E025B421A4002EBCC020E3280
:108FB00000F0CAFE05AB03EB8603CDE9019358F838
:108FC0002630009357F8262007ABB1B2204600F0B8
:108FD000EBFD20350028D2D10136C5E7C4E90632C1
:108FE0000029CBD10D4602264FF40077884617E0C2
:108FF000FFF760FF814600B34FF400720021CDE916
:109000000A07CDF8308000F09FFECDF800900123D4
:1090100000220AA9A06900F0D7FC0028AFD10135D1
:10902000A369DB8CAB42A9DDE06A036993FBF6F32D
:10903000AB42DDDCA2E70248A1E702489FE700BFA0
:1090400045F4FFFF46F4FFFF2B8DFF1F7047000024
:109050002DE9F7438046084691461F46FFF71AFE62
:109060000646002859D05C2000F06AFE044608B984
:109070002B4D2AE05C22002100F066FE012104F164
:109080004C0000F070FE0546F8B90A9B63640B9B28
:10909000A364244B266023611B692662C4F85090A8
:1090A000276413B1716920469847236D8BB1236DF6
:1090B000012B08D101A9206AFFF71DFE0026814679
:1090C000019B9E4212DBC8F80040284603B0BDE871
:1090D000F0833046FFF717FE4FF40072D0E900012D
:1090E000FFF753FEE0620028E1D1C1E735230022FB
:1090F00009EB4611204600F082F907460028B7D058
:109100004FF0FF332246A16C00F046F9F8620028C8
:10911000AED083683B620136D2E7034DD5E700BF8E
:1091200047F4FFFF4401002041F4FFFF70B50546FE
:10913000446AC06C0E4600F023FE2CB1202231465A
:10914000206800F007FE20B9E86C00F02AFE2046F7
:1091500070BDA468F1E770B50546846AC06C0E4620
:1091600000F00EFE1CB123689B68B34204D1E86C8A
:1091700000F017FE204670BDA468F3E770B5436A9F
:109180000446EBB935212046FFF7E5FF18B1016829
:10919000204600F011FBA06908B100F0A9FCE069CD
:1091A00008B100F0A5FCE06A08B1FFF755FEE06CDD
:1091B00008B100F0E3FD2046BDE8704000F0C2BDFC
:1091C0009E681D68636C0BB128469847A36D33B148
:1091D000226D012A03D12946204600F0E7F9E86A0A
:1091E00008B100F0E5F8284600F039F93346C8E741
:1091F00010B50446006A236D4BB9FFF7A3FD50B9C3
:10920000A06900F02DFD01236365002003E0FFF756
:109210009BFD0028F7D010BD08B528B1FFF7AEFFC1
:10922000BDE8084000F06ABD08BD2DE9F3410646DF
:109230000D461746984600F03DFD044678B9089B58
:10924000099ACDE9008331463B462846FFF700FFE7
:10925000044620B9286800F04FFB044610B1286886
:10926000FFF7DAFF204602B0BDE8F0812DE9F347B1
:109270000A9F884691469A4600287FD0036B856AEC
:10928000022B7DD16B6D012B7AD1E86C00F078FD5B
:109290000DF1020201A9284600F06FF9044640BB17
:1092A0000B9B384E002B18BF0026E86C00F079FDB0
:1092B000AEB32146284600F03FFA2A6D012A57D165
:1092C000314B9E4254D10023C4F800802373637352
:1092D000A273E373C4F80490BDF80230019A2146EA
:1092E000284600F01CF9002842D1E86900F0B8FCDB
:1092F0003EE00026D9E70A2000F0A6FDE86C00F069
:109300003FFD0DF1020201A9284600F036F904469E
:10931000E86C00F046FD013E02D11C4EC9E79626DE
:10932000002CE8D0019B113BBB4225D30023A37343
:10933000E3733A46514604F11000C4F80490C4F8AF
:109340000080A78100F002FDE86C00F019FDBDF877
:109350000230019A2146284600F0E1F8064610B98D
:10936000E86900F07DFCE86C00F01BFD002EA0D148
:10937000304602B0BDE8F087034E9AE7044EF7E7A7
:10938000044EF5E747F4FFFF42F4FFFF46F4FFFF0A
:1093900044F4FFFF43F4FFFF38B5054628B129B177
:1093A000806A00F05DFA00B1056038BD0846FCE750
:1093B000014618B10368986A00F0FEB9704730B1F1
:1093C00029B151F8083C43F0004341F8083C70478C
:1093D00038B50C4690B189B1856AE86C00F0D0FCD4
:1093E000284634F8083C34F9062CA4F1100100F0AA
:1093F000ADF8E86CBDE8384000F0D3BC38BD2DE9CD
:10940000F04105463420884617461E4600F098FC79
:109410000446A0B13422002100F096FC20224146EF
:10942000204600F095FCC4E90876A562102000F003
:1094300087FC064630B9204600F084FC34462046BE
:10944000BDE8F0810460E86C00F09AFC05F12400AE
:109450003146FFF77BFCE86C00F0A3FCEFE738B582
:109460000446D0B10146806AFFF760FE054678B138
:10947000A36AD86C00F084FCA06A29462430FFF768
:1094800074FCA36AD86C00F08CFC284600F05AFCEF
:109490002046BDE8384000F055BC38BDF7B51D4644
:1094A0008B181746002203F8012C4A6A12F00102B9
:1094B0000E4611D02846FFF739FE70B36B6C046876
:1094C0000BB120469847E06AFFF772FF204603B0D1
:1094D000BDE8F040FFF7C3BF0B6A2846FFF78FFFD8
:1094E0000446D0B1022303632A464FF0FF33A96C30
:1094F000FFF752FFE06280B1816821620123CDE96C
:10950000007320463346626AFFF7B0FE2B6C23B12E
:10951000204603B0BDE8F040184703B0F0BD10B5D9
:10952000044686B00020CDE90400E069246DCDE951
:1095300002123CB900910123224602A900F044FA2C
:1095400006B010BD194600F001FBF9E710B504465E
:1095500086B00020CDE90400A069246DCDE9021297
:109560003CB900910123224602A900F02DFA06B071
:1095700010BD194600F0EAFAF9E738B5044613467B
:10958000226DC0690D4662B900F06EFA28B9E06A32
:10959000FFF790FC4FF400732B60BDE8384000F0FB
:1095A000DEBB0A46194600F0ACFAF6E7F7B5054609
:1095B000C06C0E46174600F0E3FB0DF1020201A954
:1095C0002846FFF7DAFF044620B9E86C00F0E9FB13
:1095D00003B0F0BD3522002302712822437183714C
:1095E000C3710273437331462022103000F0B0FB88
:1095F0006763336A2363019ABDF802302146284627
:10960000FFF78DFFE86900F02BFBDEE7F8B5056892
:109610002E6D012E02D16C6A022704B9F8BD2168B3
:109620000B6B5BB9AB6D002B0CBF3B463346012B7C
:109630000B6303D100222846FFF7B8FFA468ECE7CC
:1096400038B5034614461B6D80692BB900F00CFA3F
:10965000BDE8384000F083BB0A46214600F051FACD
:10966000F6E72DE9FF4105686A6A8AB12B6D012B87
:109670000ED111680A6B5AB9A86D30B10B63284638
:10968000FFF794FF04B0BDE8F08102230B63F9E714
:10969000E86C00F075FB0DF10A0203A92846FFF7FC
:1096A000CFFF0446E86C00F07CFB00260227002C6C
:1096B000E8D026726672A672E67261682846FFF7E5
:1096C0004AFD0028DED003681868F0B1026B012A59
:1096D0001BD12368436207632B6C03B19847E86C86
:1096E00000F04EFBA368002BBDF80A301EDA238180
:1096F000039B63810DF10A0203A92846FFF7A0FF2F
:109700000446E86C00F04DFBD1E7039AB2F5803FC8
:10971000E5D2E289D207E2D42168A2890091D3F888
:109720000480DB6804F11001C047D8E7039A2146A2
:109730002846FFF70BFFDDE7034608461A6D12B90E
:10974000D96AFFF760BB7047F8B50F46054600249D
:10975000BC4202DB4FF0FF340EE02E460435306889
:10976000FFF786FB1F2809DC012300EB441403FAF2
:1097700000F03368034333602046F8BD0134E7E767
:10978000B2EB411F15DA514201F01F014FF02003E7
:1097900092FBF3F302F01F0258BF4A42012101FA83
:1097A00002F250F8231021EA020140F823100020B1
:1097B00070474FF0FF30704770B50D46896804461A
:1097C000FFF7C9FC064698B1E06C00F0D9FAAA6828
:1097D000042104F13000FFF7D3FF314604F12800E3
:1097E000FFF7C3FAE06C00F0DCFA304600F0AAFAAA
:1097F0002846BDE8704000F0A5BAB2EB411F11DA6F
:10980000534203F01F034FF0200192FBF1F102F0ED
:109810001F0250F8210058BF5A42012303FA02F2F6
:10982000104070474FF0FF307047B2EB411F14DA21
:10983000514201F01F014FF0200392FBF3F302F0BD
:109840001F0258BF4A42012101FA02F250F82310C8
:10985000114340F82310002070474FF0FF3070474D
:109860002DE9F047054610208A4691461F4600F034
:1098700067FA044660B11022002100F065FA10205A
:1098800000F05EFA064630B9204600F05BFA00248C
:109890002046BDE8F087E86C00F072FA7B1C05F109
:1098A000300822D03A4604214046FFF7A6FF48B1CF
:1098B000304600F047FA204600F044FAE86C00F029
:1098C00070FAE4E73A4604214046FFF7AEFFC4E9E8
:1098D00001A7C4F80C9005F1280034603146FFF769
:1098E00035FAE86C00F05DFAD2E704214046FFF754
:1098F0002BFF0746EBE7000030B5036D2149224AF4
:10990000012B0446214B224887B007BFCDE9041044
:10991000CDE90232CDE90401CDE90223002123691A
:10992000019102AA00921D68022204AB2046A847BA
:10993000C8B923692046DB689847C30715D4236D4F
:10994000012BD4E9065102D00B4629461D460020C2
:10995000FFF7DBF938B929460120FFF7D6F910B92E
:109960002046FFF745FC07B030BD0123A365224622
:10997000352308492046FFF773FF0028DFD106484A
:10998000F1E700BF24C9FF1F6396FF1F0D96FF1F5D
:109990002AC9FF1F9D94FF1F47F4FFFF10B5426DBA
:1099A000C38C04465088013B034002EB430399807B
:1099B00000F0D4F9626D538801335380B4F85E30FF
:1099C0000133A4F85E3010BD2DE9F04FB0F860907F
:1099D00085B002EB030A00EB091388461FFA8AFBE5
:1099E0000E999966A3F874B0036D009300250446A0
:1099F0004E462B460AF1FF31AA4502DDB8F1000FB1
:109A00000FD1B4F85C30A4F86060A3EB0B032046E0
:109A1000A4F85C304946FFF7C1FF002005B0BDE85F
:109A2000F08FCDE90231009BD8F800000192360199
:109A30009F1900F094F9009B03999851029B7B6059
:109A4000019AD8F80400B860A942D4BF1846012092
:109A5000AA42B881DEBF80B240F00200B881013571
:109A6000FE89D8F80880C7E7F8B50F4604460028F5
:109A70003CD0856DB0F862306A889A4236D0C68C88
:109A8000013E1E405A1C05EBC605A0F8622000F0FE
:109A900064F9686886B20FB1AB683B6080B20001C0
:109AA0002718B4F85C10B7F87420256D11442B18F2
:109AB000013AA4F85C10A7F874209A89510711D5CF
:109AC000B4F86020DA81A4F8606004440023A06E3A
:109AD000A366F8BDB7F87420DB89013A05EB0313E0
:109AE000A7F874209A89D207F4D4E9E70020F0E7B8
:109AF00030B1836B13B100230363836300F022B999
:109B0000704770B504461646B0F86420406D43882F
:109B100093420D4618D0531CA4F86430E38C013BEB
:109B2000134000EB43039B880B8000F016F92B8851
:109B3000226D1B01D05800F014F92A88236D03EB25
:109B400002139B68336070BD0020FCE738B5C38CFE
:109B50008B4205460FD3846D6088013B034004EBC4
:109B6000C303C3E9011200F0F9F8AA6D5388013369
:109B70005380002038BD0148FCE700BF41F4FFFFDF
:109B8000826A436D920709D5C26CC18C03EB420314
:109B9000B0F86220013A521A9A8070471A8842F04F
:109BA00001021A80704700002DE9F8431E89360132
:109BB0007836814630460F4690461D4600F0C0F884
:109BC0000446002847D03246002100F0BDF8204668
:109BD000202240F8049B414600F0BAF8A784686848
:109BE000E062089B2989E363099BE184A4F85C1087
:109BF00023646B682E895A1E02EB0612371D5B42E6
:109C000002EB47021A4002EBC6020E3222632B68B7
:109C1000A3638A1CC4E9131303EB0113636503EB0D
:109C20004203421E134440420340A365013900230E
:109C3000226D8B4202EB03120ADB4FF40043D38107
:109C40002046FFF79DFF0A9B00201C60BDE8F883BB
:109C50000133D381ECE70148F8E700BF44F4FFFF8C
:109C600010B5044600F078F8A36A13F0020FA36D54
:109C700017D0E16C626D03EBC10352889B88013AF7
:109C8000D21AB4F85E3092B2934294BF00230123FB
:109C90001BB1236C0BB1204698470023A4F85E301B
:109CA00010BD1B88DB4303F00103F1E7C36B03B175
:109CB0001847704708B50C4A1368002B05DA0B4BA0
:109CC0000B4A0C48572101F031FC0133012B136082
:109CD00008D150220021084801F09BFCBDE8084053
:109CE000FEF7B9BF002008BD2852002087C9FF1F1A
:109CF00030C9FF1F9DC9FF1F2C52002008B50B4B18
:109D00001968002905DC0A4B0A4A0B486C2101F04E
:109D10000DFC0139196039B95022084801F079FC6D
:109D2000BDE80840FEF799BF002008BD285200207A
:109D300072C9FF1F39C9FF1F9DC9FF1F2C52002088
:109D4000FEF78EBCFEF7E6BC01F063BC01F056BC2A
:109D500001F040BF01F02CBF704770477047FEF71D
:109D600078BFFEF777BF10B504460A2000F03EFA30
:109D70002060B0FA80F04009404210BD00F0E0BB26
:109D800010B50446FEF7CCFE034648B901464FF035
:109D9000FF32204600F004FBBDE81040FEF73EBF56
:109DA00010BD70B50546FEF7BBFE044648B9FEF788
:109DB00017FF2346224621462846BDE8704000F0A2
:109DC0002ABA70BDFFF7CFBF08B100F0B9BB70472A
:109DD00037B5002504460195FEF7A2FE034660B1A3
:109DE00001AA2946204600F061FB019B1BB1064BEE
:109DF0004FF080521A6003B030BD01464FF0FF3281
:109E0000204600F0CDFAF6E704ED00E037B5002576
:109E100004460195FEF784FE68B12B4601AA294647
:109E2000204600F078FA019B1BB1064B4FF08052A0
:109E30001A6003B030BD034602460146204600F0DA
:109E4000EAF9F6E704ED00E000F0BABD032810B52A
:109E500006DD074B074A084840F2A11101F066FBF6
:109E6000064B142404FB0030C0E9031210BD00BFF0
:109E700039CAFF1F44C9FF1F9DC9FF1F2C52002074
:109E8000032838B50C46114606D9094B094A0A4839
:109E90004FF4E17101F04AFB084A142505FB002349
:109EA000C3E901412246BDE83840FEF743BE00BF8A
:109EB00039CAFF1F55C9FF1F9DC9FF1F2C52002023
:109EC00010B40C46014620465DF8044BFEF7C0BEB8
:109ED000032838B5054606DD0F4B104A40F20D2128
:109EE0000F4801F023FB0F4B142404FB00342369BB
:109EF00023B90D4B094A40F21121F1E7FEF744FE68
:109F0000D4E9031328469847D4E901122846BDE84E
:109F10003840FFF7B5BF00BF39CAFF1F6AC9FF1F2E
:109F20009DC9FF1F2C52002027CAFF1F10B50446F1
:109F300008461146002200F03BF92060B0FA80F09C
:109F40004009404210BD000073B504460D46164658
:109F5000FEF7E6FD034678B1002301AA2946204614
:109F600000F0D9F9012810D1019B1BB1084B4FF02B
:109F700080521A6002B070BD32462946204600F079
:109F80004AF9431E58425841F4E70020F2E700BF67
:109F900004ED00E073B504460D461646FEF7C0FD1D
:109FA000034670B101AA2946204600F07FFA012835
:109FB00010D1019B1BB1084B4FF080521A6002B0C8
:109FC00070BD32462946204600F0EAF9431E584249
:109FD0005841F4E70020F2E704ED00E000F1080347
:109FE0004FF0FF324360C0E90223036100230360A6
:109FF000704700230361704743684B609A688A602A
:10A000009A68516099600861036801330360704782
:10A010000A68531C30B50AD103695A684A609160D6
:10A020008B605960086103680133036030BD00F143
:10A0300008035C6825689542EFD82346F9E7D0E924
:10A04000012103699160D0E9011251605A6882428E
:10A0500004BF82685A6000220261186801381860E3
:10A06000704738B51546026C044662B17DB9806808
:10A0700001F0C4FAA368226C13446268A36093429F
:10A0800001D32368A360A36B0133A36338BDC06809
:10A0900001F0B4FA236CE26821685B421A448A42F8
:10A0A000E2603EBF62689B18E360022DEBD1A36BB8
:10A0B000002BE8D0A36B013BA363E4E7034630B475
:10A0C0001C6808465CB1D9681A6C5D681144A942E5
:10A0D000D96028BFDC60D96830BC01F08FBA30BCD1
:10A0E000704738B50446FEF7D7F904F12405A36C90
:10A0F000002B12DC4FF0FF33A364FEF7DFF9FEF70D
:10A10000CBF904F11005636C002B13DC4FF0FF3327
:10A110006364BDE83840FEF7D1B9636A002BE9D02B
:10A12000284600F0CFFC08B100F044FDA36C013BD1
:10A13000A364DCE72369002BE8D0284600F0C2FCCA
:10A1400008B100F037FD636C013B6364DBE738B5B1
:10A150000D46044610B9FEF789F9FEE7FEF79CF9B3
:10A16000D4E90F302268A2604343D1181B1A13446C
:10A170006160E36000214FF0FF33A1636364A36477
:10A180006DB923693BB104F1100000F09BFC01287C
:10A1900001D1FEF75FF9FEF791F9012038BD04F116
:10A1A0001000FFF71BFF04F12400FFF717FFF2E791
:10A1B00070B50E46054670B14C20FEF751FA0446C4
:10A1C00048B106FB05F00130FEF74AFA206028B9D5
:10A1D0002046FEF79FFAFEF749F9FEE7C4E90F565D
:10A1E00001212046FFF7B3FF204670BD10B50C4695
:10A1F00010B9FEF73BF9FEE7884202D2FEF736F9C6
:10A20000FEE702220021FFF7D3FF08B1846310BDEF
:10A21000FEF72CF9FEE72DE9F04385B08846019260
:10A220001E46044610B9FEF721F9FEE721B9036C7A
:10A2300013B1FEF71BF9FEE7022E05D1E36B012BEC
:10A2400002D0FEF713F9FEE700274FF000093FE0C8
:10A25000019D1DB9FEF732F9002053E017B902A89D
:10A2600000F06AFCFEF72AF900F0B2FAFEF714F9E2
:10A27000636C013308BFC4F84490A36C013308BF7A
:10A28000C4F84890FEF71AF901A902A800F064FC8E
:10A2900000283AD1FEF700F9A26BE36B9A420FD186
:10A2A000FEF70CF9019904F1100000F0E5FB2046DF
:10A2B000FFF717FF00F020FB48B9FEF7CBF806E0E8
:10A2C000FEF7FCF82046FFF70CFF00F015FB012716
:10A2D000FEF7E2F8A26BE36B9A4201D3022EB7D1EC
:10A2E000324641462046FFF7BCFE636A3BB104F1AB
:10A2F000240000F0E7FB012801D1FEF7ABF8FEF7E0
:10A30000DDF8012005B0BDE8F0832046FFF7E9FE47
:10A3100000F0F2FAA0E72DE9F041884616461D4606
:10A32000044610B9FEF7A2F8FEE721B9036C13B199
:10A33000FEF79CF8FEE7022D05D1E36B012B02D05E
:10A34000FEF794F8FEE7FEF769F9FEF78FF8A26BC7
:10A35000E36B9A42074601D3022D1FD12A4641469C
:10A360002046FFF77EFEA36C013313D1636A0BB95D
:10A37000012409E004F1240000F0A4FB0028F7D038
:10A38000002EF5D0012434603846FEF793F82046BD
:10A39000BDE8F081A36C0133A364E9E70024F3E78F
:10A3A0002DE9F04385B00E4601929946044610B956
:10A3B000FEF75CF8FEE721B9036C33B1FEF756F8FF
:10A3C000FEE700274FF000084AE00F46FAE7636A0D
:10A3D000E560002B5ED004F1240000F073FB002840
:10A3E00058D055E0019D1DB9FEF768F8002054E0F3
:10A3F00017B902A800F0A0FBFEF760F800F0E8F93A
:10A40000FEF74AF8636C013308BFC4F84480A36CBC
:10A41000013308BFC4F84880FEF750F801A902A82C
:10A4200000F09AFB00283BD1FEF736F8A36B7BB90E
:10A43000FEF744F8019904F1240000F01DFB2046CA
:10A44000FFF74FFE00F058FA48B9FEF703F806E0B0
:10A45000FEF734F82046FFF744FE00F04DFA0127DE
:10A46000FEF71AF8A36B002BBCD031462046E568F6
:10A47000FFF724FEB9F1000FA9D1A36B013BA36341
:10A4800023693BB104F1100000F01CFB012801D14D
:10A49000FDF7E0FFFEF712F8012005B0BDE8F083FC
:10A4A0002046FFF71EFE00F027FA9FE7F8B50F469B
:10A4B0001646044610B9FDF7D9FFFEE721B9036C33
:10A4C00013B1FDF7D3FFFEE7FEF7A8F8FDF7CEFFC7
:10A4D000A36B054603B339462046FFF7EFFDA36B98
:10A4E000013BA363636C013312D123690BB90124CF
:10A4F00009E004F1100000F0E5FA0028F7D0002E82
:10A50000F5D0012434602846FDF7D4FF2046F8BD7D
:10A51000636C01336364EAE71C46F4E7074A0023EF
:10A5200002EBC3014968814203D1002142F8331094
:10A5300070470133082BF3D1704700BF7C520020D5
:10A5400010B5044610B9FDF791FFFEE7FFF7E6FFEF
:10A55000006808B1FEF7DEF82046BDE81040FEF7BF
:10A56000D9B8FEE7064A13681968064B19B94FF0C7
:10A57000FF321A6070471268D268D2685268F8E7F2
:10A58000C05200206801002010B50E4B1A685060C0
:10A590000D4A12688242044607D90C4A10681968AD
:10A5A000BDE810400431FFF733BD094A106819684F
:10A5B0000431FFF72DFD074B1A68A24288BF1C60CB
:10A5C00010BD00BFBC52002098530020C452002090
:10A5D000C0520020680100202DE9F84F0C9D0F4665
:10A5E00093469A46DDE90A69804610B9FDF73EFFB9
:10A5F000FEE7042E02D9FDF739FFFEE74020FEF703
:10A600002FF8044650B125B94FEA8B00FEF728F821
:10A610000546256385B92046FEF77CF84FF0FF30EC
:10A62000BDE8F88FD8F80030002B69D12B68DB6AC1
:10A63000B34298BF2C6063E00BF18042013A05EB16
:10A6400082057B1E25F0070504F13402093713F853
:10A65000011F02F8011B197809B1BB42F7D1002391
:10A66000271D84F83D303846E662FFF7C2FC04F14E
:10A670001800FFF7BEFCC6F105032461A361646204
:10A68000524641462846FDF7C3FE2060B9F1000F4F
:10A6900001D0C9F80040FDF7FFFE284B284D1A688D
:10A6A000DFF8CC8001321A602A68002ABAD12C6007
:10A6B0001B68012B24D12348DFF8B8A0DFF8B8903D
:10A6C000FFF78CFC2048FFF789FC2048FFF786FC49
:10A6D0001F48FFF783FC1F48FFF780FC5046FFF739
:10A6E0007DFC4846FFF77AFC1B48FFF777FC1B48C8
:10A6F000FFF774FC1A4BC3F800A01A4BC3F8009084
:10A70000194A136801331360184AE36A11688B42CF
:10A7100088BF13600B4A142000FB03203946FFF763
:10A720006BFCFDF7CBFED8F800302BB12B68DB6A51
:10A73000B34201D2FDF78EFE012071E72C530020B9
:10A74000BC520020C8520020DC520020F0520020F1
:10A7500004530020185300206C5300208453002021
:10A76000C0520020C4520020385300203C53002027
:10A7700080530020405300205453002030B5002463
:10A7800085B0CDE90244CDE90044234682220C493C
:10A790000C48FFF721FF012805460AD1FDF766FEA8
:10A7A000094B1D60094B1C6005B0BDE83040FDF74A
:10A7B000E1BE10B9FDF75AFEFEE705B030BD00BF9F
:10A7C0004CCAFF1F63A5FF1F805300209853002031
:10A7D000024A136801331360704700BF34530020EE
:10A7E0002DE9F84F394B1B68002B67D1384B1A689D
:10A7F00001321A601D688DB9364B1A68126812B1A1
:10A80000FDF734FEFEE7344A1968106818601160DD
:10A81000324A136801331360FFF7A4FE304C314F06
:10A820002368AB424FF0000B11D93A682E4BD16A26
:10A8300014224A439A58022A28BF4FF0010B2B4A90
:10A840001268002A0CBF58460120BDE8F88FDFF8D7
:10A850008490DFF8A0A0D9F8002012681AB94FF050
:10A86000FF322260E1E7D9F80020D268D66871682B
:10A870008D4201D22160D8E706F104084046FFF777
:10A88000DEFBB16A19B106F11800FFF7D8FBF06AD8
:10A89000DAF80010144B88424FF0140288BFCAF84F
:10A8A0000000414602FB0030FFF7A6FB3868F16A62
:10A8B000C26A914228BF4FF0010BCCE70C4A1368E3
:10A8C000013313604FF0000BB9E700BF3453002091
:10A8D00098530020C0520020C4520020685300202A
:10A8E00068010020BC520020C85200209C53002068
:10A8F000305300203C5300202DE9F041284C2368C0
:10A9000013B9FDF7B3FDFEE7FDF7C6FD2368013B74
:10A91000236023682BB10024FDF7D0FD2046BDE85D
:10A92000F081204B1B68002BF5D01F4D1F4EDFF828
:10A930008C802B686BB91E4C23681BB11D4D012602
:10A9400023682BBB1B4B1C68012CE4D1FDF782FD57
:10A95000E2E7EB68DC68271D04F11800FFF76FFBE6
:10A960003846FFF76CFBE36A32681420934200FB21
:10A970000380394688BF3360FFF73EFB0E4BE26A27
:10A980001B68DB6A9A42D4D30A4B01221A60CEE7D5
:10A99000FFF726FF00B12E602368013B2360CFE75D
:10A9A000345300202C5300206C5300203C530020D3
:10A9B000305300209C530020BC520020C85200207D
:10A9C00010B518B9BDE81040FDF744BD0B4B1B682E
:10A9D00013B1FDF74BFDFEE7FFF7FAFE084B1C68CD
:10A9E000084B044418680430FFF729FB2046FFF7A2
:10A9F000CBFDFFF781FF0028E4D010BD34530020C9
:10AA000098530020BC52002038B5164B1A68164BDC
:10AA100012B101221A6038BD1A60144A1449142375
:10AA2000154608685843105890B109684B43D01830
:10AA3000083344686468446013449C4204BF6368FC
:10AA40004360142303FB01514B68DA68094BE1E7CB
:10AA5000086810B9FDF70AFDFEE7086801380860CC
:10AA6000DFE700BF345300209C530020C852002071
:10AA70003C530020BC52002038B50D4610B9FDF7FC
:10AA8000F5FCFEE70C4C21681831FFF7C1FA20688D
:10AA90000430FFF7D4FA6B1C06D121680748043153
:10AAA000BDE83840FFF7A8BA054B18682844BDE850
:10AAB0003840FFF769BD00BFBC520020845300201E
:10AAC0009853002038B5C368DC6814B9FDF7CEFC94
:10AAD000FEE704F118052846FFF7B1FA104B1B6892
:10AAE000DBB9251D2846FFF7AAFA0E4AE36A11686A
:10AAF0008B4288BF13600C4A1420294600FB0320B8
:10AB0000FFF77AFA094BE26A1B68DB6A9A4283BF55
:10AB1000074B01201860002038BD29460548EFE7A3
:10AB2000345300203C530020C8520020BC52002067
:10AB30009C5300206C53002008B510B9FDF796FC1B
:10AB4000FEE7034B1B680360024B1B68436008BDB4
:10AB5000685300209853002070B50D46044610B984
:10AB6000FDF784FCFEE711B9FDF780FCFEE7FDF779
:10AB700093FC0E4B19682B685A1C10D00C4A1068B5
:10AB8000D4E90062864201D091420DD2881A8342F4
:10AB90000AD95B1A13442B602046FFF7CDFF00242F
:10ABA000FDF78CFC204670BD0124F9E79853002086
:10ABB00068530020014B01221A6070479C5300200B
:10ABC00013B5084B8DF807001A7842B158689C6895
:10ABD00001220DF10701A047002002B010BD4FF087
:10ABE000FF30FAE7A053002070B505460C468E18DA
:10ABF000B44200D170BD4FF41801284600F058FC53
:10AC00000028F8D02B6804F8013BF1E72DE9F0416A
:10AC10000C4FDFF8348005460C468E18B44201D143
:10AC2000BDE8F08114F8013B2B643946284600F05A
:10AC30003FFC0028F9D04146284600F039FC0028A6
:10AC4000F9D0EBE70E0098000300980030B5114DE5
:10AC50002C7887B0DCB92023CDE90012CDE902348D
:10AC60006946062368600593049400F0F1FB6A6866
:10AC7000D2F8803043F00103C2F88030064BAB605D
:10AC8000064BEB6001232B70204607B030BD03203C
:10AC9000FBE700BFA05300200DACFF1FE9ABFF1F77
:10ACA00038B5144651B10138012807D8054B18783A
:10ACB00020B1D3E90105A847204638BD4FF0FF3445
:10ACC000FAE700BFA053002038B5144638B9054B49
:10ACD000187820B1DD685868A847204638BD4FF085
:10ACE000FF34FAE7A05300200FB41FB50A4B1B78BE
:10ACF00073B107AB039300934FF0FF32069B0749F4
:10AD0000002000F055F805B05DF804EB04B0704782
:10AD10004FF0FF30F7E700BFA0530020C1ABFF1F8B
:10AD200070B500240470BAB10A6822B930234370A8
:10AD30000121084670BD044692FBF3F503FB152282
:10AD4000002AB4BFC2F13002303204F8012F2A4683
:10AD5000211A002DF0D1ECE70A68002AE6D09DF810
:10AD600010100029044614BF37265726B2FBF3F50E
:10AD700003FB1522092A94BF3032921904F8012FDF
:10AD80002A46211A002DF1D1D3E72DE9F041069D85
:10AD900080460C4617461E46BC4201DBBDE8F081EA
:10ADA00007994046A8473168013131600134F3E723
:10ADB0002DE9F04F95B0984600230893AB4B1E9CAD
:10ADC0000592B2F1FF3F18BF134606460F460793A0
:10ADD00098F8000038B9079B0BB1089B05930598BC
:10ADE00015B0BDE8F08F252820D03146B847089B24
:10ADF00001330893A346B4E145F00105904698F865
:10AE000001302B2B08F1010207D011D8202B07D0DD
:10AE1000232B08D04FF0000917E045F00205EDE7BD
:10AE200045F00405EAE745F01005E7E70025E6E709
:10AE30002D2BE1D0302BEDD145F00805DEE70A21BE
:10AE400001FB0929A9F13009984698F80120A2F1DF
:10AE50003001092908F10103F1D92E2A06D15A78C7
:10AE6000303A092A03F1010158D9984698F801208F
:10AE7000682A08F1010353D06C2A58D04C2A18BF15
:10AE80004346587803F10108A0F15803202BACD8B1
:10AE900001A252F823F000BF37AFFF1FEBADFF1F39
:10AEA000EBADFF1FEBADFF1FEBADFF1FEBADFF1FCA
:10AEB000EBADFF1FEBADFF1FEBADFF1FEBADFF1FBA
:10AEC000EFB0FF1F53B1FF1FC7AFFF1FEBADFF1F59
:10AED000EBADFF1FEBADFF1FEBADFF1FC7AFFF1FBC
:10AEE000EBADFF1FEBADFF1FEBADFF1FEBADFF1F8A
:10AEF000B7B1FF1FB3B0FF1F03B1FF1FEBADFF1FC3
:10AF0000EBADFF1F6BB1FF1FEBADFF1F17B1FF1FB5
:10AF1000EBADFF1FEBADFF1F65B0FF1F0B469EE7BC
:10AF200098F80220682A08BF08F10203A9E798F8F8
:10AF300002206C2AF7E7012314A90393236841F840
:10AF4000283D039B0093002210230BA8FFF7E8FE87
:10AF50000BAB034404F1040B04932C0705F010031E
:10AF60008246029340F18480002B7DD03146302010
:10AF7000B847039B002B31460CBF78205820B847B8
:10AF8000089B0233089301230693CDE9007608ABB2
:10AF90004A4651463020FFF7F8FE029B4C46002BF4
:10AFA0005CD0069B002B59D131463020B847039B1B
:10AFB000002B31460CBF78205820B847089B02333D
:10AFC000089302344AE014A9236841F82C3D012279
:10AFD0000A2300920BA8FFF7A3FE0BAB03440493D4
:10AFE000099B002B04F1040B044617DA01344FF0DF
:10AFF0002D0A2A071FD5BAF1000F05D03146504659
:10B00000B847089B013308932146CDE9007608AB89
:10B010004A463020FFF7B9FE4C461FE0A90703D58A
:10B0200001344FF02B0AE4E715F0040A1CBF013489
:10B030004FF0200ADDE7EB0707D4CDE9007608AB37
:10B040004A4621462020FFF7A0FEBAF1000F05D0A6
:10B0500031465046B847089B01330893049B03F1DF
:10B06000010A67E0002367E7029B8DE7FEFFFF7F91
:10B07000E807029B00F1A580CBB10AF1020408ABFE
:10B08000CDE900764A4621462020FFF77EFE029B4E
:10B09000002BE3D031463020B847039B002B3146CC
:10B0A00014BF58207820B847089B0233D5E7544690
:10B0B000E5E714A9236841F8283D0123009304F132
:10B0C000040B082300220BA8FFF72AFE0BAB034456
:10B0D00029070446049397D4EA07BFD40146CDE973
:10B0E000007608AB4A462020FFF74FFEB6E714A9CA
:10B0F000236841F8283D0123009304F1040B022347
:10B10000E0E714A9636841F8283D0123009304F1A6
:10B11000080B1023D6E714A9236841F8283D012322
:10B12000009304F1040B0A23CCE73146B847089B8F
:10B13000013308931AF8010D0028F6D1EB0710D55A
:10B14000CDE9007608AB4A4621462020FFF71DFED8
:10B1500007E031462078B847089B013304F1040B1F
:10B16000089308F101085C4632E604F1040B2468F8
:10B17000002CF6D02046FDF7D5F815F001058246E3
:10B1800007D10146CDE9007608AB4A462020FFF7FB
:10B19000FCFD013C14F8010F38B9002DE1D0CDE9D8
:10B1A000007608AB4A465146CFE73146B847089B80
:10B1B00001330893EEE72368089A1A6004F1040B40
:10B1C000CFE75446002B3FF449AFEDE6174AD2F8DB
:10B1D000883043F47003C2F88830154B4FF0A062FA
:10B1E000C3F80028D3F8002842F00042C3F8002832
:10B1F000D3F80028002AFBDB0322C3F80028BFF3A2
:10B200006F8F4FF0A0621A601A6842F000421A6015
:10B21000074B1A68002AFCDB03221A60BFF36F8F0A
:10B22000BFF34F8F014B034A9A60704700ED00E077
:10B23000002008E00080FF1F084B98420CD1A3F5C6
:10B2400084130022DA621A63054AC3F87423C3F830
:10B2500078230122C3F83828704700BF00801E42BF
:10B26000B1B001000C4A138923F001031B041B0C2D
:10B2700013810A4B1A6842F440421A601A6842F479
:10B2800040321A601A6842F440221A601A6842F486
:10B2900040121A60704700BF0080284270400C4284
:10B2A00010B5124B124C0C22C3F8F024A3F55F33F7
:10B2B000A3F5777320461A6842F040021A601A68B4
:10B2C00022F03F021A609A6D42F040729A659A6DC0
:10B2D00042F040629A65FFF7AFFF20464FF4E1323B
:10B2E0000449BDE81040FFF7B1BC00BF00C00F42E9
:10B2F00000801E4200366E01024B0122C3F8042278
:10B30000704700BF00C00F4208B5FFF7F5FFFFF719
:10B31000A9FFFFF7C5FF024B0C22C3F82C2508BD7F
:10B3200000C00F42D0F8803023F00103C0F8803015
:10B3300001220023C0F88030C0F884204FF4E0627E
:10B34000C0F888204FF40042C0F88C2040F601027B
:10B35000C0F890202B22C0F89C206022C0F8A030BA
:10B36000C0F8B030C0F8B420C0F8B830D0F884309D
:10B3700023F00103C0F88430D0F88430DB07FBD51C
:10B3800070470000120170B513460D460124002BD2
:10B3900047D1B1FBF4F3B2FBF4F22B4DAB4202D830
:10B3A000B2F5803F14D35C1E4FF6FF76B4FBF5F484
:10B3B000551E0134B5FBF6F50135AC4238BF2C46BD
:10B3C000B3FBF4F3B2FBF4F2BBB3002A08BF0122D3
:10B3D0004FF6FF755C1EB4FBF5F4651C013C052CB3
:10B3E00029D81A4E345DD0F8906026F46076C0F803
:10B3F0009060D0F89060013A92B246EAC414C0F866
:10B400009040C0F8A420B3FBF5F2013A92B24FF499
:10B410007A73C0F8A8206B43B1FBF3F1C0F8B01009
:10B4200070BDB5FBF3F603FB16561C461D463346AE
:10B43000ADE701231D460524D5E7002AF9D10122F5
:10B4400015461346F7E700BFF9FF060051CAFF1F74
:10B4500010B529B9134B144A1448312100F066F88D
:10B46000D0F8803023F00103C0F88030FFF75AFF96
:10B47000D0F884308A6843F480431343CA68134386
:10B480000A6913434A691343C0F88430D0F88830FE
:10B4900043F00403C0F88830D1E90012BDE8104041
:10B4A000FFF770BF57CAFF1FC9CAFF1F62CAFF1F3D
:10B4B0000B0C89B2C058C84000F001007047000072
:10B4C000032910B505D9074B074A08483D2100F06C
:10B4D0002DF84FF40003CB40046A1C42FCD040F826
:10B4E000212010BDEACAFF1F66CBFF1F01CBFF1F43
:10B4F000032910B505D90A4B0A4A0B484C2100F024
:10B5000015F8046A4FF00063CB40234217BF0431A3
:10B51000022050F82130136018BF002010BD00BF7A
:10B52000D3CAFF1F71CBFF1F01CBFF1F1FB51C46E6
:10B53000094B1B680546D86852B1084B0091CDE90C
:10B54000013207492B46224600F022F800F018FC91
:10B55000044B1A46F2E700BF6C01002082CBFF1FAC
:10B560008FCBFF1F4CC5FF1F08B5074B044613B117
:10B570000021AFF30080054B1868836A03B1984738
:10B58000204600F0CBFF00BF00000000C0CBFF1F33
:10B590000EB403B5014603AB054853F8042B00680D
:10B5A000019300F067F802B05DF804EB03B0704758
:10B5B0006C01002070B50D4E0D4CA41BA41000258D
:10B5C000A54209D10B4E0C4C01F046FBA41BA41064
:10B5D0000025A54205D170BD56F8253098470135A4
:10B5E000EEE756F8253098470135F2E778CCFF1F93
:10B5F00078CCFF1F78CCFF1F7CCCFF1F10B5431EFB
:10B600000A44914200D110BD11F8014B03F8014FDB
:10B61000F7E702440346934200D1704703F8011B49
:10B62000F9E79368013B002B10B4936008DA946942
:10B63000A34201DB0A2903D15DF8044B00F0E0BA14
:10B640001368581C1060197008465DF8044B704769
:10B65000F8B506460F461446D518AC4201D1002075
:10B6600007E03A4614F8011B3046FFF7DAFF431CA7
:10B67000F3D1F8BD2DE9F04F0C469DB017461D469D
:10B68000064618B183690BB900F072FC7C4B9C42F2
:10B6900058D17468A38918075ED52369002B5BD045
:10B6A0000023099320238DF8293030238DF82A3088
:10B6B00003954FF0010BB846454615F8013B0BB119
:10B6C000252B54D1B8EB070A0BD053463A462146F6
:10B6D0003046FFF7BDFF013000F0C280099B5344A4
:10B6E000099398F80030002B00F0BA8000234FF047
:10B6F000FF32CDE90523049307938DF853301A9355
:10B70000A846052218F8011B5E48FCF719FE049BA9
:10B7100078BBD90644BF20228DF853201A0744BFB6
:10B720002B228DF853202A782A2A2AD0079AA84655
:10B7300000200A25414611F8013B303B092B69D90D
:10B7400060B324E0504B9C4201D1B468A2E74F4B58
:10B750009C4208BFF4689DE72146304600F0A2FAFB
:10B7600000289DD04FF0FF301DB0BDE8F08FA846F7
:10B77000A2E7444A801A0BFA00F0184304904546A9
:10B78000BEE7039A111D12680391002A01DB07929C
:10B7900004E0524243F002030792049398F8003009
:10B7A0002E2B0ED198F801302A2B38D1039B1A1D6D
:10B7B0001B680392002BB8BF4FF0FF3308F102085B
:10B7C0000593334D98F8001003222846FCF7B8FD86
:10B7D00040B14023401B03FA00F0049B034308F1EF
:10B7E0000108049398F800102A488DF828100622C2
:10B7F00008F10107FCF7A4FD002837D0264B1BBB3E
:10B80000039B073323F0070308330393099B4B443F
:10B81000099350E705FB0232012088468AE700239E
:10B8200008F10108059319460A25404610F8012B36
:10B83000303A092A03D9002BC3D00591C1E705FB93
:10B84000012101238046F0E703AB00932246134B0E
:10B8500004A93046AFF30080B0F1FF3F8146D5D157
:10B86000A3895B063FF57EAF09987DE703AB0093A4
:10B8700022460A4B04A9304600F088F8ECE700BFE6
:10B8800018CCFF1FC4CBFF1F38CCFF1FF8CBFF1F06
:10B89000CACBFF1FCECBFF1F0000000051B6FF1F19
:10B8A0002DE9F04791461F468A680B69DDF8208034
:10B8B0009342B8BF1346C9F8003091F843200646BA
:10B8C0000C4612B10133C9F800302368990642BF13
:10B8D000D9F800300233C9F80030256815F00605A4
:10B8E00007D104F1190AE368D9F800209B1AAB428A
:10B8F00028DC94F843302268003318BF01239206F5
:10B900002DD404F1430239463046C047013020D0DF
:10B910002368E568D9F8002003F00603042B08BF6C
:10B92000AD1AA36822690CBF25EAE575002593428C
:10B93000C4BF9B1AED184FF000091A344D451AD1B7
:10B94000002008E00123524639463046C047013006
:10B9500003D14FF0FF30BDE8F0870135C3E7E118B0
:10B960005A1C302081F84300224494F8451082F894
:10B9700043100233C5E70123224639463046C0470B
:10B980000130E6D009F10109D8E700002DE9F043C4
:10B9900001F1430C0C46097E85B06E291746064618
:10B9A00098460C9A00F0B38022D8632936D00AD882
:10B9B000002900F0B980582900F0838004F1420585
:10B9C00084F8421032E0642901D06929F6D1206858
:10B9D0001368050603F104012AD51B681160002BCA
:10B9E00003DA2D225B4284F843206F480A2239E0B3
:10B9F000732900F09D8008D86F2920D07029DDD1EF
:10BA0000236843F02003236003E0752917D07829C9
:10BA1000D4D1782384F84530644855E01368191D63
:10BA20001B68116004F1420584F8423001238CE068
:10BA30001B68116010F0400F18BF1BB2CFE71368EE
:10BA40002568181D1060280601D51B6802E06806ED
:10BA5000FBD51B8854486F2914BF0A2208220021F5
:10BA600084F843106568A560002DC0F295802168B8
:10BA700021F004012160002B3DD1002D40F08E808B
:10BA80006546082A0BD12368DB0708D5236962685D
:10BA90009A42DEBF302305F8013C05F1FF35ACEBDF
:10BAA00005032361CDF800803B4603AA21463046BA
:10BAB000FFF7F6FE01304DD14FF0FF3005B0BDE885
:10BAC000F083394884F84510136821681D1D1B68F0
:10BAD00015600A060BD5CA0744BF41F0200121605A
:10BAE0001BB9226822F0200222601022B7E74D061F
:10BAF00048BF9BB2EFE76546B3FBF2F102FB11339F
:10BB0000C35C05F8013D0B460029F5D1B9E7136880
:10BB100025686169181D106028061B6801D5196029
:10BB200002E06A06FBD51980002323616546B9E768
:10BB30001368191D11601D68626800212846FCF712
:10BB4000FFFB08B1401B606063682361002384F839
:10BB50004330A7E723692A4639463046C0470130BB
:10BB6000AAD023689B0713D4E068039B9842B8BF10
:10BB70001846A3E701234A4639463046C0470130FC
:10BB80009AD00135E368039A9B1AAB42F2DCEBE7EB
:10BB9000002504F11909F5E7002BACD1037884F8EE
:10BBA000423004F142056CE7D5CBFF1FE6CBFF1F07
:10BBB00010B56AB10139841810F8013B11F8012F52
:10BBC000934203D1A04201D0002BF5D1981A10BDA9
:10BBD0001046FCE770B50139044602B970BD234632
:10BBE00011F8015F03F8015B561E2DB91444A342FE
:10BBF000F4D003F8015BFAE71C463246EDE700009B
:10BC0000F8B50E461446054618B183690BB900F025
:10BC1000AFF9214B9C422AD16C68A369A360A38928
:10BC20001A072ED5236963B323692068C01A636994
:10BC3000F6B28342374604DC2146284600F02EF94E
:10BC400028BBA368013BA36023685A1C22601E70B6
:10BC500063690130834204D0A389DB0719D50A2E1A
:10BC600017D12146284600F019F990B10FE00B4B8F
:10BC70009C4201D1AC68D0E7094B9C4208BFEC68FC
:10BC8000CBE72146284600F00DF80028CCD04FF035
:10BC9000FF373846F8BD00BF18CCFF1F38CCFF1F58
:10BCA000F8CBFF1F324B70B51D6806460C4625B118
:10BCB000AB6913B9284600F05BF92E4B9C420FD1BB
:10BCC0006C68B4F90C309AB215072CD4D00611D494
:10BCD0000922326043F04003A3814FF0FF303EE081
:10BCE000254B9C4201D1AC68EBE7244B9C4208BF3A
:10BCF000EC68E6E7510712D5616B41B104F14403EA
:10BD0000994202D0304600F021FA00236363A389F0
:10BD100023F02403A3810023636023692360A389A4
:10BD200043F00803A38123694BB9A38903F420736B
:10BD3000B3F5007F03D02146304600F0C7F9A28951
:10BD400012F001030CD00023A36063695B42A3617E
:10BD5000236953B9B4F90C3013F08000BAD170BD27
:10BD6000920758BF6369A360F2E70020F7E700BFBE
:10BD70006C01002018CCFF1F38CCFF1FF8CBFF1F31
:10BD800008B5062000F0C2FA012000F0C7FB000051
:10BD90008A892DE9F041054610070C4658D44B68B6
:10BDA000002B05DC0B6C002B02DC0020BDE8F081D1
:10BDB000E66A002EF9D0002312F480522F68216A1F
:10BDC0002B6032D0606DA3895A0705D56368C01A0D
:10BDD000636B0BB1236CC01A00230246E66A216A2A
:10BDE0002846B047431CA38906D129681D2948D895
:10BDF000294ACA40D60744D500226260D904226984
:10BE0000226004D5421C01D12B6803B96065616BC7
:10BE10002F600029C9D004F14403994202D028467A
:10BE200000F094F900206063C0E701232846B04782
:10BE3000411CC8D12B68002BC5D01D2B01D0162B5F
:10BE400001D12F60B1E7A38943F04003A381ADE79F
:10BE50000F69002FA9D093070E6808BF4B690F60C8
:10BE600018BF0023A6EB07088B60B8F1000F9CDD1C
:10BE700043463A46216AA66A2846B047002806DCAF
:10BE8000A38943F04003A3814FF0FF308EE70744BE
:10BE9000A8EB0008E9E700BF0100402038B50B69B6
:10BEA00005460C46DBB118B183690BB900F060F8A8
:10BEB0000C4B9C4209D16C68B4F90C307BB1214623
:10BEC0002846BDE83840FFF763BF074B9C4201D1CD
:10BED000AC68F1E7054B9C4208BFEC68ECE700203A
:10BEE00038BD00BF18CCFF1F38CCFF1FF8CBFF1F99
:10BEF000002310B50446C0E90033836081814366A6
:10BF0000C281C0E904338361194608225C30FFF71F
:10BF100080FB054B6362054BA362054BE362054B57
:10BF20002462236310BD00BF45C3FF1F67C3FF1F0B
:10BF30009FC3FF1FC3C3FF1F014900F085B800BFA7
:10BF40009DBEFF1F70B54A1E682555430E4605F17C
:10BF5000740100F049F9044640B10021C0E900161F
:10BF60000C30A06005F16802FFF753FB204670BD5E
:10BF7000836910B5044633BBC0E912330365124B25
:10BF8000124A1B688262984204BF0123836100F059
:10BF90001FF86060204600F01BF8A060204600F00B
:10BFA00017F80022E06004216068FFF7A1FF01227A
:10BFB0000921A068FFF79CFF02221221E068FFF729
:10BFC00097FF0123A36110BDC0CBFF1F39BFFF1F27
:10BFD000F8B51B4B1E68B369074613B93046FFF727
:10BFE000C7FF4836D6E90134013B03D5336833B186
:10BFF0003668F7E7B4F90C506DB16834F4E7042102
:10C000003846FFF79FFF30600028F1D10C233B60DA
:10C0100004462046F8BD0B4B6566C4E90055A56093
:10C02000C4E90335C4E905550822294604F15C003A
:10C03000FFF7EFFAC4E90D55C4E91255E9E700BF6F
:10C04000C0CBFF1F0100FFFF2DE9F8438046894662
:10C0500000F14804002614B93046BDE8F883D4E95D
:10C060000175013F01D52468F5E7AB89012B07D99C
:10C07000B5F90E30013303D029464046C847064380
:10C080006835EEE770B50E46B1F90E10002996B08E
:10C0900014461D4607DA00232B60B3891A0610D414
:10C0A0004FF480630EE06A4600F0B2F90028F2DB3C
:10C0B000019A02F47042A2F500535A425A412A6092
:10C0C000EEE740230020236016B070BD8B8973B566
:10C0D0009D0706460C4607D504F1470323602361FC
:10C0E0000123636102B070BD01AB6A46FFF7CAFF6E
:10C0F00000990546304600F077F848B9B4F90C309D
:10C100009A05EFD423F0030343F00203A381E3E78E
:10C110000D4BB362A389206043F08003A381009B91
:10C120006361019B20615BB1B4F90E10304600F0F1
:10C1300081F928B1A38923F0030343F00103A3810C
:10C14000A3891D43A581CDE739BFFF1F38B505463B
:10C15000002945D051F8043C0C1F002BB8BFE4184F
:10C1600000F08AF91F4A1368104633B963601460FF
:10C170002846BDE8384000F080B9A3420CD92168B8
:10C180006218934204BF1A685B68636004BF521868
:10C1900022600460ECE713465A680AB1A242FAD959
:10C1A00019685818A0420BD12068014458188242DF
:10C1B0001960DDD1106852685A6001441960D7E7F0
:10C1C00002D90C232B60D3E7206821188A4204BFD0
:10C1D00011685268626004BF091821605C60C7E79B
:10C1E00038BD00BFB053002070B5CD1C25F003054D
:10C1F00008350C2D38BF0C25002D064601DBA94261
:10C2000003D90C233360002070BD00F035F9214ABA
:10C210001468214691B9204C23681BB9304600F0C0
:10C220003DF820602946304600F038F8431C24D100
:10C230000C233360304600F020F9E4E70B685B1B09
:10C2400018D40B2B0FD90B60CD50CC18304600F012
:10C2500014F904F10B00231D20F00700C31AD3D0FA
:10C260005A42E250D0E78C424B6816BF63601360BD
:10C270000C46EBE70C464968CCE7C41C24F00304E9
:10C28000A04205D0211A304600F008F80130CFD086
:10C290002560DBE7B0530020B453002038B5064CCE
:10C2A000002305460846236000F02AF9431C02D10A
:10C2B000236803B12B6038BDBC5300201F2938B55B
:10C2C00004460D4604D9162303604FF0FF3038BDF5
:10C2D000426C12B152F821304BB9204600F030F8D0
:10C2E0002A4601462046BDE8384000F017B8012B29
:10C2F0000AD0591C03D1162303600120E7E700246C
:10C3000042F82540284698470020E0E7024B0146C6
:10C310001868FFF7D3BF00BF6C01002038B5074C89
:10C320000023054608461146236000F0D9F8431C57
:10C3300002D1236803B12B6038BD00BFBC5300207D
:10C3400000F0BEB810B50C46B1F90E1000F096F82A
:10C350000028ABBF636DA3891B1823F48053ACBFC7
:10C360006365A38110BD2DE9F0411F468B89DB0574
:10C3700005460C46164605D502230022B1F90E10DB
:10C3800000F068F8A389B4F90E1023F48053A38158
:10C3900032463B462846BDE8F04100F017B810B5DC
:10C3A0000C46B1F90E1000F055F8431CA38915BFD7
:10C3B000606523F4805343F48053A38118BFA381A5
:10C3C00010BDB1F90E1000F013B8000038B5074CDD
:10C3D000054608461146002222601A46FEF760FC18
:10C3E000431C02D1236803B12B6038BDBC5300202D
:10C3F00038B5064C002305460846236000F050F887
:10C40000431C02D1236803B12B6038BDBC5300200C
:10C4100038B5074C0023054608461146236000F056
:10C4200047F8431C02D1236803B12B6038BD00BF1D
:10C43000BC53002038B5064C00230546084623604F
:10C4400000F046F8431C02D1236803B12B6038BDCD
:10C45000BC53002038B5074C05460846114600225B
:10C4600022601A4600F044F8431C02D1236803B14D
:10C470002B6038BDBC5300207047704738B5074C5F
:10C48000054608461146002222601A46FEF71CFCAB
:10C49000431C02D1236803B12B6038BDBC5300207C
:10C4A000024B58221A604FF0FF307047BC530020F7
:10C4B000024B58221A604FF0FF307047BC530020E7
:10C4C000024B58221A604FF0FF307047BC530020D7
:10C4D000024B58221A600020704700BFBC53002056
:10C4E000024B58221A604FF0FF307047BC530020B7
:10C4F000024B58221A604FF0FF307047BC530020A7
:10C50000044A05491368002B08BF0B461844106005
:10C5100018467047B8530020C0530020FEE700BF04
:10C520000D0A52504D53472050696E67506F6E6729
:10C53000204672656552544F532052544F53204148
:10C5400050492044656D6F2E2E2E0D0A0052504D1D
:10C55000534720496E69742061732052656D6F7472
:10C56000650D0A0030203D3D20726573756C7400C6
:10C570002F686F6D652F616268697368656B2F75D1
:10C58000646F6F2F75646F6F2D6E656F5F6375736A
:10C59000746F6D5F6C696E75782F6D342F467265A0
:10C5A0006552544F535F4253505F312E302E315FEE
:10C5B000694D583653582F6578616D706C65732FCF
:10C5C000696D783673785F7364625F6D342F64656C
:10C5D0006D6F5F617070732F72706D73672F70690C
:10C5E0006E67706F6E675F6672656572746F732FCA
:10C5F00070696E67706F6E675F6672656572746F83
:10C60000732E63004E616D65207365727669636594
:10C610002068616E647368616B6520697320646F64
:10C620006E652C204D3420686173207365747570BD
:10C6300020612072706D7367206368616E6E656C37
:10C64000205B2564202D2D2D3E2025645D0D0A00E4
:10C6500047657420446174612046726F6D204D619E
:10C66000737465722053696465203A2025640D0A4D
:10C670000050696E67506F6E675461736B0050694C
:10C680006E6720506F6E67205461736B0072706D1F
:10C6900073675F6368616E6E656C5F63726561741A
:10C6A00065645F72746F730072706D73675F636847
:10C6B000616E6E656C5F64656C657465645F7274F1
:10C6C0006F730072706D73675F726561645F72741F
:10C6D0006F735F63620072705F63686E6C20262602
:10C6E0002072705F63686E6C2D3E72705F6570744F
:10C6F0000064656661756C745F710072705F636879
:10C700006E6C002F686F6D652F6162686973686574
:10C710006B2F75646F6F2F75646F6F2D6E656F5F14
:10C72000637573746F6D5F6C696E75782F6D342FE0
:10C730004672656552544F535F4253505F312E30FD
:10C740002E315F694D583653582F6D6964646C659E
:10C75000776172652F6D756C7469636F72652F6F89
:10C7600070656E2D616D702F72706D73672F7270B2
:10C770006D73675F72746F732E63007072697600F9
:10C780005F626F6F745F637075005F736875746468
:10C790006F776E5F63707500706C6174666F726D39
:10C7A0005F696E746572727570745F656E61626CDC
:10C7B0006500706C6174666F726D5F696E7465722E
:10C7C000727570745F64697361626C6500706C612E
:10C7D00074666F726D5F696E746572727570745F86
:10C7E000656E61626C655F616C6C00706C61746633
:10C7F0006F726D5F696E746572727570745F646973
:10C800007361626C655F616C6C002F686F6D652F82
:10C81000616268697368656B2F75646F6F2F7564EB
:10C820006F6F2D6E656F5F637573746F6D5F6C698D
:10C830006E75782F6D342F4672656552544F535F75
:10C840004253505F312E302E315F694D5836535868
:10C850002F6D6964646C65776172652F6D756C749A
:10C8600069636F72652F6F70656E2D616D702F70CB
:10C870006F7274696E672F696D783673785F6D3487
:10C880002F706C6174666F726D2E630030203C3DBA
:10C890002064697361626C655F636F756E74657245
:10C8A000735B766563746F725F69645D0030203C12
:10C8B0003D2064697361626C655F636F756E74655A
:10C8C000725F616C6C00766563746F725F6964207F
:10C8D0003C20504C4154464F524D5F4449534142D5
:10C8E0004C455F434F554E544552530030203C2039
:10C8F00064697361626C655F636F756E7465727392
:10C900005B766563746F725F69645D0030203C2004
:10C9100064697361626C655F636F756E7465725F85
:10C92000616C6C0074785F76710072785F7671006C
:10C93000656E765F696E697400656E765F646569C1
:10C940006E697400656E765F72656769737465728F
:10C950005F69737200656E765F656E61626C655FBC
:10C96000696E7465727275707400656E765F697356
:10C970007200656E765F696E69745F636F756E7461
:10C980006572203E203000656E765F696E69745F67
:10C99000636F756E746572203E3D2030002F686FA6
:10C9A0006D652F616268697368656B2F75646F6F61
:10C9B0002F75646F6F2D6E656F5F637573746F6D28
:10C9C0005F6C696E75782F6D342F467265655254B1
:10C9D0004F535F4253505F312E302E315F694D58B7
:10C9E0003653582F6D6964646C65776172652F6D7D
:10C9F000756C7469636F72652F6F70656E2D616DF4
:10CA0000702F706F7274696E672F656E762F667205
:10CA1000656572746F732F72706D73675F706F727C
:10CA200074696E672E63004E554C4C20213D206981
:10CA30006E666F2D3E69737200766563746F722047
:10CA40003C204953525F434F554E540049444C4596
:10CA500000040302010006696E6974436F6E666923
:10CA600067002F686F6D652F616268697368656B19
:10CA70002F75646F6F2F75646F6F2D6E656F5F63B9
:10CA80007573746F6D5F6C696E75782F6D342F469A
:10CA900072656552544F535F4253505F312E302EB2
:10CAA000315F694D583653582F706C6174666F72E0
:10CAB0006D2F647269766572732F7372632F75615F
:10CAC00072745F696D782E6300554152545F496EF0
:10CAD000697400726567496E646578203C204D5525
:10CAE0005F52525F434F554E5400726567496E6402
:10CAF0006578203C204D555F54525F434F554E544E
:10CB0000002F686F6D652F616268697368656B2FB0
:10CB100075646F6F2F75646F6F2D6E656F5F6375D2
:10CB200073746F6D5F6C696E75782F6D342F4672FC
:10CB3000656552544F535F4253505F312E302E3152
:10CB40005F694D583653582F706C6174666F726D03
:10CB50002F647269766572732F7372632F6D755FC0
:10CB6000696D782E63004D555F53656E644D736734
:10CB7000004D555F547279526563656976654D73F2
:10CB800067002C2066756E6374696F6E3A200061D1
:10CB90007373657274696F6E20222573222066613B
:10CBA000696C65643A2066696C6520222573222CC5
:10CBB000206C696E65202564257325730A000000CA
:10CBC00070010020232D302B2000686C4C0065661E
:10CBD00067454647003031323334353637383941CE
:10CBE00042434445460030313233343536373839E4
:10CBF00061626364656600000000000000000000E0
:10CC00000000000000000000000000000000000024
:10CC10000000000000000000000000000000000014
:10CC20000000000000000000000000000000000004
:10CC300000000000000000000000000000000000F4
:10CC400000000000000000000000000000000000E4
:10CC50000000000000000000F8B500BFF8BC08BCF0
:10CC60009E467047F8B500BFF8BC08BC9E467047AA
:08CC700010B6FF7F0100000077
:04CC78006582FF1FB3
:04CC7C004182FF1FD3
:10CC8000AAAAAAAAF84F0000D18AFF1F000000003C
:10CC9000C18AFF1F0000000000000000A58AFF1FDE
:10CCA000898AFF1F00000000000000000000000053
:10CCB0000000000002000000010000000000000071
:10CCC000000000000000FFBF000100000010000095
:10CCD0000000000000000000000000000000000054
:10CCE000000000000080FFBF0001000000100000F5
:10CCF0000100000000000000000000000000000033
:10CD00000100000072706D73672D6F70656E616D4C
:10CD1000702D64656D6F2D6368616E6E656C0000CB
:10CD200000000000080000200000000000000000DB
:10CD300000000000010000000000000000000000F2
:10CD400000000000020000000100000000000000E0
:10CD5000000000000000FFBF000100000010000004
:10CD600000000000000000000000000000000000C3
:10CD7000000000000080FFBF000100000010000064
:10CD800001000000000000000000000000000000A2
:10CD90000100000072706D73672D6F70656E616DBC
:10CDA000702D64656D6F2D6368616E6E656C00003B
:10CDB000000000000800002000000000000000004B
:10CDC00000000000418FFF1F258FFF1F298FFF1FCD
:10CDD0002B8FFF1F2F8FFF1F378FFF1F3B8FFF1FD3
:10CDE0004D90FF1F3D8FFF1FFFFFFFFF70010020D1
:10CDF0000000000018CCFF1F38CCFF1FF8CBFF1F2E
:10CE00000000000000000000000000000000000022
:10CE10000000000000000000000000000000000012
:10CE20000000000000000000000000000000000002
:10CE300000000000000000000000000000000000F2
:10CE400000000000000000000000000000000000E2
:040000051FFF82F562
:00000001FF
