:020000041FFFDC
:1080000000800020F582FF1F2183FF1F2183FF1FB7
:108010002183FF1F2183FF1F2183FF1F000000001A
:108020000000000000000000000000003584FF1F79
:108030002183FF1F00000000E184FF1F3985FF1F1F
:108040002183FF1F2183FF1F2183FF1F2183FF1F28
:108050002183FF1F2183FF1F2183FF1F2183FF1F18
:108060002183FF1F2183FF1F2183FF1F2183FF1F08
:108070002183FF1F2183FF1F2183FF1F2183FF1FF8
:108080002183FF1F2183FF1F2183FF1F2183FF1FE8
:108090002183FF1F2183FF1F2183FF1F2183FF1FD8
:1080A0002183FF1F2183FF1F2183FF1F2183FF1FC8
:1080B0002183FF1F2183FF1F2183FF1F2183FF1FB8
:1080C0002183FF1F2183FF1F2183FF1F2183FF1FA8
:1080D0002183FF1F2183FF1F2183FF1F2183FF1F98
:1080E0002183FF1F2183FF1F2183FF1F2183FF1F88
:1080F0002183FF1F2183FF1F2183FF1F2183FF1F78
:108100002183FF1F2183FF1F2183FF1F2183FF1F67
:108110002183FF1F2183FF1F2183FF1F2183FF1F57
:108120002183FF1F2183FF1F2183FF1F2183FF1F47
:108130002183FF1F2183FF1F2183FF1F2183FF1F37
:108140002183FF1F2183FF1F2183FF1F2183FF1F27
:108150002183FF1F2183FF1F2183FF1F2183FF1F17
:108160002183FF1F2183FF1F2183FF1F2183FF1F07
:108170002183FF1F2183FF1F2183FF1F2183FF1FF7
:108180002183FF1F2183FF1F2183FF1F2183FF1FE7
:108190002183FF1F2183FF1F2183FF1F2183FF1FD7
:1081A0002183FF1F2183FF1F2183FF1F2183FF1FC7
:1081B0002183FF1F2183FF1F2183FF1F2183FF1FB7
:1081C0002183FF1F2183FF1F2183FF1F2183FF1FA7
:1081D0002183FF1F2183FF1F2183FF1F2183FF1F97
:1081E0002183FF1F2183FF1F2183FF1F2183FF1F87
:1081F0002183FF1F2183FF1F2183FF1F2183FF1F77
:108200002183FF1F2183FF1F2183FF1F2183FF1F66
:108210002183FF1F2183FF1F2183FF1F2183FF1F56
:108220002183FF1F2183FF1F2183FF1F2183FF1F46
:108230002183FF1F2183FF1F2183FF1F2183FF1F36
:1082400010B5054C237833B9044B13B10448AFF390
:1082500000800123237010BD70000020000000008A
:1082600094B0FF1F08B5034B1BB103490348AFF39C
:10827000008008BD000000007400002094B0FF1FC3
:10828000154B002B08BF134B9D46A3F5803A0021E8
:108290008B460F461348144A121A01F0D8FE0F4BB2
:1082A000002B00D098470E4B002B00D098470020A1
:1082B000002104000D000D48002802D00C48AFF347
:1082C000008001F095FE2000290000F04FFA01F037
:1082D00069FE00BF000008000080002000000000D0
:1082E0000000000070000020245200200000000068
:1082F0000000000072B601F08FFD0649064A074BE8
:108300009A42BEBF51F8040B42F8040BF8E762B67C
:10831000FFF7B6FFBCB0FF1F000000207000002078
:10832000FFF7FEBF034613F8012B002AFBD1181AF2
:10833000013870470000000000000000000000004D
:1083400001F0FF01102A2BDB10F0070F08D010F806
:10835000013B013A8B422DD010F0070F42B3F6D10A
:10836000F0B441EA012141EA014122F007047FF023
:1083700000070023F0E80256083C85EA010586EA7A
:10838000010685FA47F5A3FA87F586FA47F6A5FAB6
:1083900087F68EB9EED1F0BC01F0FF0102F00702C2
:1083A00032B110F8013B013A83EA010313B1F8D16D
:1083B0000020704701387047002D06BF354603384E
:1083C000073815F0010F07D1013015F4807F02BF87
:1083D000013015F4C03F0130F0BC0138704700BFD8
:1083E00005480068006880F3088862B6BFF34F8FC5
:1083F000BFF36F8F00DF00BF08ED00E0DFF80C0077
:10840000016841F4700101607047000088ED00E0F0
:108410004FF0807340E90213054B40F80C3C6FF0BD
:10842000020340F8202C40F8243C4438704700BF39
:108430007D84FF1F064B19680868B0E8F04F80F391
:108440000988BFF36F8F4FF0000080F311887047E9
:10845000E8500020044B4FF080521A60BFF34F8F5A
:10846000BFF36F8F704700BF04ED00E0EFF31180A2
:108470004FF0200181F311887047002008B5054BAB
:108480001B68013302D0FFF7F1FFFEE7FFF7EEFFB5
:10849000FEE700BF0000002008B5FFF7E7FF044A31
:1084A000136801331360BFF34F8FBFF36F8F08BDA5
:1084B0000000002080F311887047000008B5074BCA
:1084C000186810B9FFF7D2FFFEE70138186018B935
:1084D000BDE80840FFF7EEBF08BD00BF0000002068
:1084E000EFF30980BFF36F8F124B1A681EF0100F65
:1084F00008BF20ED108A20E9F04F10604DF8043DD0
:108500004FF0200080F3118800F0E0FE4FF00000F3
:1085100080F3118808BC19680868B0E8F04F1EF0B5
:10852000100F08BFB0EC108A80F30988BFF36F8F7B
:10853000704700BFE850002008B5FFF797FF00F034
:10854000D5FD18B1044B4FF080521A600020BDE8F1
:108550000840FFF7AFBF00BF04ED00E0034B044A43
:108560001A60072243F8042C704700BF14E000E0B3
:10857000B776030013B5234B1A78D2B20192FF22CB
:108580001A701B78204ADBB28DF803309DF8033057
:1085900003F0200313701D4B07221A6000219DF881
:1085A0000300000602F1FF3423D401B11A601A68F7
:1085B000120202F4E0621A60019B124ADBB21370ED
:1085C000134B1A6842F470021A601A6842F0704243
:1085D0001A60FFF7C3FF0F4B00221A60FFF70EFF70
:1085E0000D4A136843F040431360FFF7F9FEFFF7AD
:1085F00045FF9DF803205200D2B28DF803200121DF
:108600002246CCE700E400E08C000020900000202F
:1086100020ED00E00000002034EF00E008B5EFF3AB
:1086200005830F2B08D90A4A9B5C0A4A12789A42A2
:1086300002D9FFF71BFFFEE7074B084A1B681268C9
:1086400003F4E063934202D9FFF710FFFEE708BD91
:10865000F0E300E08C0000200CED00E09000002032
:1086600070B5044600F02EFD2548016871B9254B10
:10867000254A23F00703C2E90031244A44F6F8757D
:10868000C2E90015C3E90025012303602CB10834B9
:1086900063071CBF24F007040834621E44F6F67317
:1086A0009A422AD8184A13685968A14201D2186818
:1086B000F0B91648834220D01868156810600A1B6C
:1086C000102A05F108050AD919194A605C604C683E
:1086D0000D4A10684668A6420DD3086011600C4927
:1086E0005B680A68D21A0A6000F08CFD284670BDEB
:1086F0001A460346D8E70246EBE70025F4E700BF39
:108700009C5000209C000020A0500020945000208D
:108710000400002038B50446B8B1A0F1080500F007
:10872000D1FC54F8040C094A11684B6883420AD3FF
:1087300044F8081C1560064A136803441360BDE83A
:10874000384000F05FBD0A46EEE738BDA05000207B
:108750000400002008B5044801F0CAF801F0F2F85E
:10876000C0B201F0E1F8F9E70CAFFF1F1FB501F04F
:10877000F1FB00230122CDE9023301930092044969
:108780000448822200F09EFB00F06EFCFEE700BF72
:108790001EAFFF1F5587FF1FD0F8803023F0010365
:1087A000C0F8803001220023C0F88030C0F8842057
:1087B0004FF4E062C0F888204FF40042C0F88C20EB
:1087C00040F60102C0F890202B22C0F89C206022C5
:1087D000C0F8A030C0F8B030C0F8B420C0F8B8304D
:1087E000D0F8843023F00103C0F88430D0F884300E
:1087F000DB07FBD570470000120170B513460D462C
:108800000124002B47D1B1FBF4F3B2FBF4F22B4D62
:10881000AB4202D8B2F5803F14D35C1E4FF6FF7610
:10882000B4FBF5F4551E0134B5FBF6F50135AC4249
:1088300038BF2C46B3FBF4F3B2FBF4F2BBB3002A0F
:1088400008BF01224FF6FF755C1EB4FBF5F4651CF2
:10885000013C052C29D81A4E345DD0F8906026F4DE
:108860006076C0F89060D0F89060013A92B246EA23
:10887000C414C0F89040C0F8A420B3FBF5F2013A4C
:1088800092B24FF47A73C0F8A8206B43B1FBF3F1B6
:10889000C0F8B01070BDB5FBF3F603FB16561C46CE
:1088A0001D463346ADE701231D460524D5E7002AC2
:1088B000F9D1012215461346F7E700BFF9FF06007C
:1088C00029AFFF1F10B529B9134B144A14483121A1
:1088D00001F04AFBD0F8803023F00103C0F880306B
:1088E000FFF75AFFD0F884308A6843F4804313437B
:1088F000CA6813430A6913434A691343C0F88430B2
:10890000D0F8883043F00403C0F88830D1E9001271
:10891000BDE81040FFF770BF2FAFFF1FA1AFFF1FD3
:108920003AAFFF1F0B0C89B2C058C84000F00100DD
:10893000704700F108034FF0FF324360C0E90223A3
:10894000036100230360704700230361704743689D
:108950004B609A688A609A68516099600368086100
:108960000133036070470A68531C30B50AD10369AC
:108970005A684A6091608B605960036808610133EE
:10898000036030BD00F108035C6825689542EFD8AC
:108990002346F9E7D0E9011203698A6082685160D1
:1089A0005968814208BF5A60002202611868013884
:1089B0001860704738B51546026C044662B17DB93F
:1089C000806801F039FBA368226C13446268A360DD
:1089D000934201D32368A360A36B0133A36338BD23
:1089E000C06801F029FB236CE26821685B421A44ED
:1089F0008A42E2603EBF62689B18E360022DEBD1C1
:108A0000A36B002BE8D0A36B013BA363E4E7034611
:108A100030B41C6808465CB1D9681A6C5D681144B2
:108A2000A942D96028BFDC60D96830BC01F004BB22
:108A300030BC704738B50446FFF72EFD04F124051D
:108A4000A36C002B12DC4FF0FF33A364FFF736FD5D
:108A5000FFF722FD04F11005636C002B13DC4FF0CF
:108A6000FF336364BDE83840FFF728BD636A002B1D
:108A7000E9D0284600F0A2FC08B100F017FDA36C75
:108A8000013BA364DCE72369002BE8D0284600F013
:108A900095FC08B100F00AFD636C013B6364DBE701
:108AA00038B50D46044610B9FFF7E0FCFEE7FFF7C6
:108AB000F3FCD4E90F302268A2604343D1181B1A9B
:108AC00013446160E36000214FF0FF33A1636364EE
:108AD000A3646DB923693BB104F1100000F06EFC92
:108AE000012801D1FFF7B6FCFFF7E8FC012038BDF3
:108AF00004F11000FFF71DFF04F12400FFF719FF38
:108B0000F2E770B50E46054670B14C20FFF7A8FDA0
:108B1000044648B106FB05F00130FFF7A1FD2060D7
:108B200028B92046FFF7F6FDFFF7A0FCFEE7C4E9F1
:108B30000F5601212046FFF7B3FF204670BD2DE9F7
:108B4000F04385B0884601921F46044610B9FFF7EE
:108B50008DFCFEE721B9036C13B1FFF787FCFEE73C
:108B6000022F05D1E36B012B02D0FFF77FFCFEE75C
:108B700000F0A2FC20B9019E1EB1FFF777FCFEE7D2
:108B800000264FF000093FE0019D1DB9FFF796FC5C
:108B9000002053E016B902A800F04AFCFFF78EFC53
:108BA00000F090FAFFF778FC636C013308BFC4F85B
:108BB0004490A36C013308BFC4F84890FFF77EFCD3
:108BC00001A902A800F044FC00283AD1FFF764FC98
:108BD000A26BE36B9A420FD1FFF770FC019904F18D
:108BE000100000F0ABFB2046FFF724FF00F00AFB6B
:108BF00048B9FFF72FFC06E0FFF760FC2046FFF7BF
:108C000019FF00F0FFFA0126FFF746FCA26BE36BA9
:108C10009A4201D3022FB7D13A4641462046FFF788
:108C2000C9FE636A3BB104F1240000F0C7FB0128D0
:108C300001D1FFF70FFCFFF741FC012005B0BDE8B3
:108C4000F0832046FFF7F6FE00F0DCFAA0E72DE9FE
:108C5000F041884616461D46044610B9FFF706FC4B
:108C6000FEE721B9036C13B1FFF700FCFEE7022D0C
:108C700005D1E36B012B02D0FFF7F8FBFEE7FFF70E
:108C8000CDFCFFF7F3FBA26BE36B9A42074601D3DF
:108C9000022D1FD12A4641462046FFF78BFEA36CCA
:108CA000013313D1636A0BB9012409E004F12400F4
:108CB00000F084FB0028F7D0002EF5D001243460AA
:108CC0003846FFF7F7FB2046BDE8F081A36C01337F
:108CD000A364E9E70024F3E72DE9F04385B00F46EC
:108CE00001929946044610B9FFF7C0FBFEE721B98F
:108CF000036C13B1FFF7BAFBFEE700F0DDFB20B910
:108D0000019E1EB1FFF7B2FBFEE700264FF0000800
:108D100048E0636AE560002B5ED004F1240000F0B7
:108D20004DFB002858D055E0019D1DB9FFF7C6FB4B
:108D3000002054E016B902A800F07AFBFFF7BEFB52
:108D400000F0C0F9FFF7A8FB636C013308BFC4F85B
:108D50004480A36C013308BFC4F84880FFF7AEFB22
:108D600001A902A800F074FB00283BD1FFF794FB97
:108D7000A36B7BB9FFF7A2FB019904F1240000F07B
:108D8000DDFA2046FFF756FE00F03CFA48B9FFF73F
:108D900061FB06E0FFF792FB2046FFF74BFE00F079
:108DA00031FA0126FFF778FBA36B002BBCD03946C4
:108DB0002046E568FFF72BFEB9F1000FA9D1A36BA0
:108DC000013BA36323693BB104F1100000F0F6FA04
:108DD000012801D1FFF73EFBFFF770FB012005B032
:108DE000BDE8F0832046FFF725FE00F00BFA9FE771
:108DF00030B5074A002352F83350DC0025B942F859
:108E000033102244506030BD0133082BF3D1FAE710
:108E1000A850002038B504460D46FFF73DFB636CB3
:108E2000013304BF00236364A36C013304BF002338
:108E3000A364FFF743FBA36B23B9294604F1240085
:108E400000F0A2FA2046BDE83840FFF7F3BDFEE788
:108E5000064A13681968064B19B94FF0FF321A60B9
:108E600070471268D268D2685268F8E7EC50002068
:108E7000080000200E4B1A6810B550600D4A1268A9
:108E80008242044607D90C4A10681968BDE81040B0
:108E90000431FFF768BD094A106819680431FFF70B
:108EA00062FD074B1A68A24288BF1C6010BD00BF5C
:108EB000E8500020C4510020F0500020EC50002069
:108EC000080000202DE9F84F0C9D0F4693469A4666
:108ED000DDE90A69804610B9FFF7C8FAFEE7042EFB
:108EE00002D9FFF7C3FAFEE74020FFF7B9FB0446BB
:108EF00050B125B94FEA8B00FFF7B2FB0546256359
:108F000085B92046FFF706FC4FF0FF30BDE8F88F2B
:108F1000D8F80030002B69D12B68DB6AB34298BFC8
:108F20002C6063E00BF18042013A05EB82057B1E69
:108F300025F0070504F13402093713F8011F02F880
:108F4000011B197809B1BB42F7D10023271D84F812
:108F50003D303846E662FFF7F7FC04F11800FFF7F2
:108F6000F3FCC6F105032461A361646252464146E5
:108F70002846FFF74DFA2060B9F1000F01D0C9F87B
:108F80000040FFF789FA284B284D1A68DFF8CC809B
:108F900001321A602A68002ABAD12C601B68012BA2
:108FA00024D12348DFF8B8A0DFF8B890FFF7C1FC60
:108FB0002048FFF7BEFC2048FFF7BBFC1F48FFF727
:108FC000B8FC1F48FFF7B5FC5046FFF7B2FC484617
:108FD000FFF7AFFC1B48FFF7ACFC1B48FFF7A9FCF1
:108FE0001A4BC3F800A01A4BC3F80090194A136833
:108FF00001331360184AE36A11688B4288BF13601B
:109000000B4A142000FB03203946FFF7A0FCFFF7B2
:1090100055FAD8F800302BB12B68DB6AB34201D285
:10902000FFF718FA012071E758510020E85000209E
:10903000F4500020085100201C5100203051002025
:109040004451002098510020B0510020EC500020E5
:10905000F05000206451002068510020AC510020E5
:109060006C5100208051002030B5002485B0CDE93E
:109070000244CDE90044234682220E490E48FFF700
:1090800021FF012805460FD100F074FA012805469A
:109090000AD1FFF7EBF9094B1D60094B1C6005B0C5
:1090A000BDE83040FFF766BA15B9FFF7DFF9FEE714
:1090B00005B030BDABAFFF1F4F8EFF1FAC5100207E
:1090C000C4510020024A136801331360704700BF87
:1090D0006051002010B5FFF7DFF9034B1C68FFF764
:1090E000EDF9204610BD00BFC45100202DE9F84F16
:1090F000394B1B68002B67D1384B1A6801321A6054
:109100001D688DB9364B1A68126812B1FFF7AEF9B7
:10911000FEE7344A1968106818601160324A136813
:1091200001331360FFF794FE304C314F2368AB429C
:109130004FF0000B11D93A682E4BD16A14224A43E2
:109140009A58022A28BF4FF0010B2B4A1268002AB6
:109150000CBF58460120BDE8F88FDFF88490DFF897
:10916000A0A0D9F8002012681AB94FF0FF3222608F
:10917000E1E7D9F80020D268D66871688D4201D243
:109180002160D8E706F104084046FFF703FCB16A06
:1091900019B106F11800FFF7FDFBF06ADAF80010CC
:1091A000144B88424FF0140288BFCAF800004146B1
:1091B00002FB0030FFF7CBFB3868F16AC26A9142CC
:1091C00028BF4FF0010BCCE70C4A13680133136042
:1091D0004FF0000BB9E700BF60510020C4510020E0
:1091E000EC500020F0500020945100200800002096
:1091F000E8500020F4500020C85100205C510020AD
:10920000685100202DE9F041284C236813B9FFF77D
:109210002DF9FEE7FFF740F92368013B236023683F
:109220002BB10024FFF74AF92046BDE8F081204B1E
:109230001B68002BF5D01F4D1F4EDFF88C802B686C
:109240006BB91E4C23681BB11D4D012623682BBB37
:109250001B4B1C68012CE4D1FFF7FCF8E2E7EB683C
:10926000DC68271D04F11800FFF794FB3846FFF770
:1092700091FBE36A32681420934200FB0380394675
:1092800088BF3360FFF763FB0E4BE26A1B68DB6A43
:109290009A42D4D30A4B01221A60CEE7FFF726FF89
:1092A00000B12E602368013B2360CFE760510020AE
:1092B0005851002098510020685100205C51002036
:1092C000C8510020E8500020F450002038B5164B5B
:1092D0001A68164B12B101221A6038BD1A60144A7E
:1092E00014491423154608685843105890B109686A
:1092F0004B43D018083344686468446013449C426C
:1093000004BF63684360142303FB01514B68DA68B0
:10931000094BE1E7086810B9FFF7A8F8FEE708680D
:1093200001380860DFE700BF60510020C85100200D
:10933000F450002068510020E850002038B50D4658
:1093400010B9FFF793F8FEE70C4C21681831FFF7CE
:109350000AFB20680430FFF71DFB6B1C06D1216857
:1093600007480431BDE83840FFF7F1BA054B1868EB
:109370002844BDE83840FFF77DBD00BFE85000201D
:10938000B0510020C451002038B50D4610B9FFF788
:109390006DF8FEE7074C21681831FFF7D8FA20680E
:1093A0000430FFF7F7FA044B18682844BDE838404A
:1093B000FFF760BDE8500020C451002038B5C368F5
:1093C000DC6814B9FFF752F8FEE704F118052846E7
:1093D000FFF7E0FA104B1B68DBB9251D2846FFF7A5
:1093E000D9FA0E4AE36A11688B4288BF13600C4AAF
:1093F0001420294600FB0320FFF7A9FA094BE26A73
:109400001B68DB6A9A4283BF074B0120186000206B
:1094100038BD29460548EFE760510020685100201B
:10942000F4500020E8500020C8510020985100203E
:1094300008B510B9FFF71AF8FEE7034B1B68036085
:10944000024B1B68436008BD94510020C4510020AA
:1094500070B50D46044610B9FFF708F8FEE711B9DC
:10946000FFF704F8FEE7FFF717F80E4B19682B68B3
:109470005A1C10D00C4A1068D4E90062864201D010
:1094800091420DD2881A83420AD95B1A13442B6089
:109490002046FFF7CDFF0024FFF710F8204670BDEF
:1094A0000124F9E7C451002094510020014B01220E
:1094B0001A607047C8510020054B1B6833B1054B3B
:1094C0001B68002B0CBF0220002070470120704752
:1094D000AC51002060510020F8B5114CFEF7DCFFC4
:1094E0002568C5B90F4F104E3846FFF722FA3046AF
:1094F000FFF71FFA0D4B1F600D4B2A460C210A2067
:109500001E60FFF7FEFA206010B9FEF7AFFFFEE71E
:109510000849FFF76DFCBDE8F840FEF7CFBF00BF7C
:1095200000520020D4510020E8510020CC510020EE
:10953000D0510020B0AFFF1F914208B541600061DB
:109540000AD8D21A83699A420DD2084B011D1868B5
:10955000FFF709FA002008BD9A4201D2994202D2CF
:10956000011D034BF3E70120F5E700BFD0510020B8
:10957000CC5100201FB5FFF7AFFF0B4B1B6813B991
:10958000FEF774FFFEE7002302220092CDE90233CA
:1095900001934FF4827205490548FFF793FC0028B8
:1095A000EED005B05DF804FB00520020B5AFFF1F00
:1095B0006996FF1F7FB50F4C0546206816461A4670
:1095C00080B10529CDE9011603950DDCFFF774FF85
:1095D0000023022808BF089A206818BF1A4601A96C
:1095E000FFF7ADFA04B070BD002301A9FFF72FFB10
:1095F000F8E700BF005200202DE9F341184D4FF06D
:1096000000082B681A6832B9164A1168296013607D
:1096100002B0BDE8F081DB68DC681E68271D3846B3
:10962000FFF7B8F9636A20469847E369012BE8D150
:10963000A36933449E4206D2636024613946286898
:10964000FFF791F9DDE70023CDF800803246194697
:109650002046FFF7AFFF0028D3D1FEF707FFFEE754
:10966000CC510020D05100202DE9F047534F544EEB
:1096700086B0B8463B681C68002C3DD0DB68D3F848
:109680000090FFF71FFDFFF725FD33689842054660
:1096900034D2FFF7B1FF3560FFF7B4FDDFF8249156
:1096A000D9F8000000231A4603A9FFF715FB00288C
:1096B000E0D0039B002BF3DB059C636913B1201DF5
:1096C000FFF768F9FFF706FD33689842054601D2B7
:1096D000FFF792FF039A3560092AE1D801239340EE
:1096E00013F4047A5DD113F0C70F3CD19B06D7D594
:1096F0002046FFF70FF8D3E7A146C2E730602CB34E
:10970000814523D8FFF77EFDD8F80030DB68DC68A0
:10971000201DFFF73FF9E369012B13D1A1694B46E7
:109720002A4649442046FFF707FF01280AD10023B3
:1097300000934A4619462046FFF73CFF10B9FEF752
:1097400095FEFEE7636A20469847A7E71D4BA9EB05
:1097500005011868FFF75EFBFFF754FD00289DD157
:10976000FEF778FE9AE7A169049B2A461944204631
:10977000FFF7E2FE012893D1636A20469847E36928
:10978000012B8DD1A2690499CDF800A00A4453465B
:1097900051462046FFF70EFF002881D1FEF766FEF6
:1097A000FEE70499A16111B9FEF760FEFEE72B46C2
:1097B0002A4629442046FFF7BFFE71E7CC5100201E
:1097C000FC5100200052002013B5084B8DF8070013
:1097D0001A7842B158689C6801220DF10701A04730
:1097E000002002B010BD4FF0FF30FAE70452002015
:1097F00070B505460C468E18B44200D170BD4FF4CA
:1098000018012846FFF78EF80028F8D02B6804F8D6
:10981000013BF1E72DE9F0410C4FDFF834800546BC
:109820000C468E18B44201D1BDE8F08114F8013B1A
:109830002B6439462846FFF775F80028F9D04146D1
:109840002846FFF76FF80028F9D0EBE70E009800E4
:109850000300980030B5114D2C7887B0DCB9202377
:10986000CDE90012CDE9023469460623686005930C
:109870000494FFF727F86A68D2F8803043F00103B8
:10988000C2F88030064BAB60064BEB6001232B70B7
:10989000204607B030BD0320FBE700BF0452002084
:1098A0001598FF1FF197FF1F38B5144651B10138C5
:1098B000012807D8054B187820B1D3E90105A8473E
:1098C000204638BD4FF0FF34FAE700BF04520020B5
:1098D00038B5144638B9054B187820B1DD6858689A
:1098E000A847204638BD4FF0FF34FAE70452002065
:1098F0000FB41FB50A4B1B7873B107AB03930093EA
:109900004FF0FF32069B0749002000F077F805B0C2
:109910005DF804EB04B070474FF0FF30F7E700BF8D
:1099200004520020C997FF1F08B5054B1B7823B1CF
:109930000021FFF749FF012008BD4FF0FF30FBE792
:1099400004520020084B1A7813B54AB15868DC68F5
:1099500001220DF10701A0479DF8070002B010BDDC
:109960004FF0FF30FAE700BF0452002070B500242A
:109970000470BAB10A6822B9302343700121084645
:1099800070BD044692FBF3F503FB1522002AB4BF19
:10999000C2F13002303204F8012F2A46211A002D7C
:1099A000F0D1ECE70A68002AE6D09DF810100029F3
:1099B000044614BF37265726B2FBF3F503FB1522E6
:1099C000092A94BF3032921904F8012F2A46211A2D
:1099D000002DF1D1D3E72DE9F041069D80460C46DC
:1099E00017461E46BC4201DBBDE8F08107994046A0
:1099F000A8473168013131600134F3E72DE9F04FB8
:109A000095B0984600230893AB4B1E9C0592B2F18B
:109A1000FF3F18BF134606460F46079398F800000D
:109A200038B9079B0BB1089B0593059815B0BDE8A5
:109A3000F08F252820D03146B847089B0133089382
:109A4000A346B4E145F00105904698F801302B2B70
:109A500008F1010207D011D8202B07D0232B08D002
:109A60004FF0000917E045F00205EDE745F0040569
:109A7000EAE745F01005E7E70025E6E72D2BE1D002
:109A8000302BEDD145F00805DEE70A2101FB09295D
:109A9000A9F13009984698F80120A2F1300109296E
:109AA00008F10103F1D92E2A06D15A78303A092A51
:109AB00003F1010158D9984698F80120682A08F165
:109AC000010353D06C2A58D04C2A18BF434658780B
:109AD00003F10108A0F15803202BACD801A252F8E1
:109AE00023F000BF839BFF1F379AFF1F379AFF1F8A
:109AF000379AFF1F379AFF1F379AFF1F379AFF1FAA
:109B0000379AFF1F379AFF1F379AFF1F3B9DFF1F92
:109B10009F9DFF1F139CFF1F379AFF1F379AFF1F40
:109B2000379AFF1F379AFF1F139CFF1F379AFF1F9B
:109B3000379AFF1F379AFF1F379AFF1F039EFF1F99
:109B4000FF9CFF1F4F9DFF1F379AFF1F379AFF1F74
:109B5000B79DFF1F379AFF1F639DFF1F379AFF1F97
:109B6000379AFF1FB19CFF1F0B469EE798F8022013
:109B7000682A08BF08F10203A9E798F802206C2AB6
:109B8000F7E7012314A90393236841F8283D039BB9
:109B90000093002210230BA8FFF7E8FE0BAB034451
:109BA00004F1040B04932C0705F010038246029382
:109BB00040F18480002B7DD031463020B847039B94
:109BC000002B31460CBF78205820B847089B023341
:109BD000089301230693CDE9007608AB4A46514627
:109BE0003020FFF7F8FE029B4C46002B5CD0069B12
:109BF000002B59D131463020B847039B002B31460A
:109C00000CBF78205820B847089B023308930234D1
:109C10004AE014A9236841F82C3D01220A2300924E
:109C20000BA8FFF7A3FE0BAB03440493099B002B87
:109C300004F1040B044617DA01344FF02D0A2A0709
:109C40001FD5BAF1000F05D031465046B847089BE2
:109C5000013308932146CDE9007608AB4A4630200F
:109C6000FFF7B9FE4C461FE0A90703D501344FF0BA
:109C70002B0AE4E715F0040A1CBF01344FF0200A58
:109C8000DDE7EB0707D4CDE9007608AB4A4621466D
:109C90002020FFF7A0FEBAF1000F05D03146504654
:109CA000B847089B01330893049B03F1010A67E05E
:109CB000002367E7029B8DE7FEFFFF7FE807029B1B
:109CC00000F1A580CBB10AF1020408ABCDE9007622
:109CD0004A4621462020FFF77EFE029B002BE3D060
:109CE00031463020B847039B002B314614BF582023
:109CF0007820B847089B0233D5E75446E5E714A916
:109D0000236841F8283D0123009304F1040B082344
:109D100000220BA8FFF72AFE0BAB034429070446D9
:109D2000049397D4EA07BFD40146CDE9007608AB87
:109D30004A462020FFF74FFEB6E714A9236841F8F2
:109D4000283D0123009304F1040B0223E0E714A94A
:109D5000636841F8283D0123009304F1080B1023A8
:109D6000D6E714A9236841F8283D0123009304F1A4
:109D7000040B0A23CCE73146B847089B013308930C
:109D80001AF8010D0028F6D1EB0710D5CDE90076C1
:109D900008AB4A4621462020FFF71DFE07E031466A
:109DA0002078B847089B013304F1040B089308F1AD
:109DB00001085C4632E604F1040B2468002CF6D05E
:109DC0002046FEF7AFFA15F00105824607D101469D
:109DD000CDE9007608AB4A462020FFF7FCFD013CA8
:109DE00014F8010F38B9002DE1D0CDE9007608ABA9
:109DF0004A465146CFE73146B847089B013308939E
:109E0000EEE72368089A1A6004F1040BCFE7544682
:109E1000002B3FF449AFEDE6174AD2F8883043F4FF
:109E20007003C2F88830154B4FF0A062C3F80028C9
:109E3000D3F8002842F00042C3F80028D3F80028E5
:109E4000002AFBDB0322C3F80028BFF36F8F4FF01B
:109E5000A0621A601A6842F000421A60074B1A6842
:109E6000002AFCDB03221A60BFF36F8FBFF34F8F12
:109E7000014B034A9A60704700ED00E0002008E0C3
:109E80000080FF1F084B98420CD1A3F584130022D9
:109E9000DA621A63054AC3F87423C3F878230122EF
:109EA000C3F83828704700BF00801E42B1B00100DF
:109EB0000C4A138923F001031B041B0C13810A4B6A
:109EC0001A6842F440421A601A6842F440321A603A
:109ED0001A6842F440221A601A6842F440121A606A
:109EE000704700BF0080284270400C42124B0C2289
:109EF00010B5C3F8F024A3F55F33A3F577730F4CC7
:109F00001A6842F040021A601A6822F03F021A6092
:109F10009A6D42F040729A659A6D42F04062204616
:109F20009A65FFF7AFFF20464FF4E1320449BDE8E0
:109F30001040FFF78FBC00BF00C00F4200801E42E0
:109F400000366E01024B0122C3F80422704700BFA5
:109F500000C00F4208B5FFF7F5FFFFF7A9FFBDE806
:109F60000840FFF7C3BF00001FB51C46094B1B6824
:109F70000546D86852B1084B0091CDE90132074936
:109F80002B46224600F022F800F0F0FB044B1A4664
:109F9000F2E700BF0C000020BDAFFF1FCAAFFF1FDC
:109FA000F8AFFF1F08B5074B044613B10021AFF30C
:109FB0000080054B1868836A03B19847204600F07B
:109FC000A3FF00BF00000000FCAFFF1F0EB403B5ED
:109FD000014603AB054853F8042B0068019300F0D9
:109FE00067F802B05DF804EB03B070470C00002086
:109FF00070B50D4E0D4CA41BA4100025A54209D12F
:10A000000B4E0C4C01F046F8A41BA4100025A542F1
:10A0100005D170BD56F8253098470135EEE756F862
:10A02000253098470135F2E7B4B0FF1FB4B0FF1FE9
:10A03000B4B0FF1FB8B0FF1F10B5431E0A449142D1
:10A0400000D110BD11F8014B03F8014FF7E70244AE
:10A050000346934200D1704703F8011BF9E7936868
:10A06000013B002B10B4936008DA9469A34201DB32
:10A070000A2903D15DF8044B00F0B8BA1368581CE4
:10A080001060197008465DF8044B7047F8B5064635
:10A090000F461446D518AC4201D1002007E03A46DD
:10A0A00014F8011B3046FFF7DAFF431CF3D1F8BD6B
:10A0B0002DE9F04F0C469DB017461D46064618B1D7
:10A0C00083690BB900F04AFC7C4B9C4258D1746800
:10A0D000A38918075ED52369002B5BD00023099361
:10A0E00020238DF8293030238DF82A3003954FF046
:10A0F000010BB846454615F8013B0BB1252B54D151
:10A10000B8EB070A0BD053463A4621463046FFF7D4
:10A11000BDFF013000F0C280099B5344099398F8B9
:10A120000030002B00F0BA8000234FF0FF32CDE961
:10A130000523049307938DF853301A93A8460522FC
:10A1400018F8011B5E48FEF7FBF8049B78BBD906A4
:10A1500044BF20228DF853201A0744BF2B228DF8CC
:10A1600053202A782A2A2AD0079AA84600200A25AE
:10A17000414611F8013B303B092B69D960B324E01B
:10A18000504B9C4201D1B468A2E74F4B9C4208BFA0
:10A19000F4689DE72146304600F07AFA00289DD009
:10A1A0004FF0FF301DB0BDE8F08FA846A2E7444A4B
:10A1B000801A0BFA00F0184304904546BEE7039A54
:10A1C000111D12680391002A01DB079204E052423C
:10A1D00043F002030792049398F800302E2B0ED11F
:10A1E00098F801302A2B38D1039B1A1D1B68039263
:10A1F000002BB8BF4FF0FF3308F102080593334D31
:10A2000098F8001003222846FEF79AF840B1402340
:10A21000401B03FA00F0049B034308F10108049378
:10A2200098F800102A488DF82810062208F1010736
:10A23000FEF786F8002837D0264B1BBB039B07335D
:10A2400023F0070308330393099B4B44099350E71A
:10A2500005FB0232012088468AE7002308F1010845
:10A26000059319460A25404610F8012B303A092A71
:10A2700003D9002BC3D00591C1E705FB01210123C0
:10A280008046F0E703AB00932246134B04A9304607
:10A29000AFF30080B0F1FF3F8146D5D1A3895B06C3
:10A2A0003FF57EAF09987DE703AB009322460A4B4A
:10A2B00004A9304600F088F8ECE700BF54B0FF1F57
:10A2C00000B0FF1F74B0FF1F34B0FF1F06B0FF1FA8
:10A2D0000AB0FF1F000000008DA0FF1F2DE9F0470E
:10A2E00091461F468A680B69DDF820809342B8BF0B
:10A2F0001346C9F8003091F8432006460C4612B1C7
:10A300000133C9F800302368990642BFD9F80030FC
:10A310000233C9F80030256815F0060507D104F1AD
:10A32000190AE368D9F800209B1AAB4228DC94F89C
:10A3300043302268003318BF012392062DD404F164
:10A34000430239463046C047013020D02368E568D3
:10A35000D9F8002003F00603042B08BFAD1AA36848
:10A3600022690CBF25EAE57500259342C4BF9B1AFC
:10A37000ED184FF000091A344D451AD1002008E0BD
:10A380000123524639463046C047013003D14FF0D1
:10A39000FF30BDE8F0870135C3E7E1185A1C3020D3
:10A3A00081F84300224494F8451082F843100233A8
:10A3B000C5E70123224639463046C0470130E6D082
:10A3C00009F10109D8E700002DE9F04301F1430C40
:10A3D0000C46097E85B06E291746064698460C9AAB
:10A3E00000F0B38022D8632936D00AD8002900F0C3
:10A3F000B980582900F0838004F1420584F84210A6
:10A4000032E0642901D06929F6D120681368050675
:10A4100003F104012AD51B681160002B03DA2D22F9
:10A420005B4284F843206F480A2239E0732900F028
:10A430009D8008D86F2920D07029DDD1236843F092
:10A440002003236003E0752917D07829D4D178231D
:10A4500084F84530644855E01368191D1B68116085
:10A4600004F1420584F8423001238CE01B6811603E
:10A4700010F0400F18BF1BB2CFE713682568181DF6
:10A480001060280601D51B6802E06806FBD51B8812
:10A4900054486F2914BF0A220822002184F843106F
:10A4A0006568A560002DC0F29580216821F0040147
:10A4B0002160002B3DD1002D40F08E806546082A9A
:10A4C0000BD12368DB0708D5236962689A42DEBF97
:10A4D000302305F8013C05F1FF35ACEB05032361A2
:10A4E000CDF800803B4603AA21463046FFF7F6FE32
:10A4F00001304DD14FF0FF3005B0BDE8F083394851
:10A5000084F84510136821681D1D1B6815600A0634
:10A510000BD5CA0744BF41F0200121601BB9226856
:10A5200022F0200222601022B7E74D0648BF9BB2FE
:10A53000EFE76546B3FBF2F102FB1133C35C05F8AC
:10A54000013D0B460029F5D1B9E71368256861691B
:10A55000181D106028061B6801D5196002E06A0604
:10A56000FBD51980002323616546B9E71368191DDF
:10A5700011601D68626800212846FDF7E1FE08B100
:10A58000401B606063682361002384F84330A7E7C1
:10A5900023692A4639463046C0470130AAD023688D
:10A5A0009B0713D4E068039B9842B8BF1846A3E703
:10A5B00001234A4639463046C04701309AD001351A
:10A5C000E368039A9B1AAB42F2DCEBE7002504F147
:10A5D0001909F5E7002BACD1037884F8423004F177
:10A5E00042056CE711B0FF1F22B0FF1FF8B50E4601
:10A5F0001446054618B183690BB900F0AFF9214B39
:10A600009C422AD16C68A369A360A3891A072ED53E
:10A61000236963B323692068C01A6369F6B2834271
:10A62000374604DC2146284600F02EF928BBA368F3
:10A63000013BA36023685A1C22601E7063690130CD
:10A64000834204D0A389DB0719D50A2E17D12146EE
:10A65000284600F019F990B10FE00B4B9C4201D154
:10A66000AC68D0E7094B9C4208BFEC68CBE72146B9
:10A67000284600F00DF80028CCD04FF0FF373846C0
:10A68000F8BD00BF54B0FF1F74B0FF1F34B0FF1FF0
:10A69000324B70B51D6806460C4625B1AB6913B93F
:10A6A000284600F05BF92E4B9C420FD16C68B4F940
:10A6B0000C309AB215072CD4D00611D4092232607E
:10A6C00043F04003A3814FF0FF303EE0254B9C4216
:10A6D00001D1AC68EBE7244B9C4208BFEC68E6E78D
:10A6E000510712D5616B41B104F14403994202D084
:10A6F000304600F021FA00236363A38923F024038A
:10A70000A3810023636023692360A38943F00803C6
:10A71000A38123694BB9A38903F42073B3F5007FA8
:10A7200003D02146304600F0C7F9A28912F0010398
:10A730000CD00023A36063695B42A361236953B912
:10A74000B4F90C3013F08000BAD170BD920758BF35
:10A750006369A360F2E70020F7E700BF0C00002068
:10A7600054B0FF1F74B0FF1F34B0FF1F08B50620A0
:10A7700000F0C2FA012000F0C7FB00008A892DE931
:10A78000F041054610070C4658D44B68002B05DCF9
:10A790000B6C002B02DC0020BDE8F081E66A002E85
:10A7A000F9D0002312F480522F68216A2B6032D036
:10A7B000606DA3895A0705D56368C01A636B0BB136
:10A7C000236CC01A00230246E66A216A2846B04775
:10A7D000431CA38906D129681D2948D8294ACA40A3
:10A7E000D60744D500226260D9042269226004D5CC
:10A7F000421C01D12B6803B96065616B2F60002991
:10A80000C9D004F14403994202D0284600F094F9DB
:10A8100000206063C0E701232846B047411CC8D12F
:10A820002B68002BC5D01D2B01D0162B01D12F601A
:10A83000B1E7A38943F04003A381ADE70F69002F7F
:10A84000A9D093070E6808BF4B690F6018BF00239B
:10A85000A6EB07088B60B8F1000F9CDD43463A4633
:10A86000216AA66A2846B047002806DCA38943F07F
:10A870004003A3814FF0FF308EE70744A8EB0008A8
:10A88000E9E700BF0100402038B50B6905460C46DA
:10A89000DBB118B183690BB900F060F80C4B9C4236
:10A8A00009D16C68B4F90C307BB121462846BDE86B
:10A8B0003840FFF763BF074B9C4201D1AC68F1E71A
:10A8C000054B9C4208BFEC68ECE7002038BD00BF98
:10A8D00054B0FF1F74B0FF1F34B0FF1F002310B52A
:10A8E0000446C0E90033836081814366C281C0E9C8
:10A8F00004338361194608225C30FFF7A8FB054B3F
:10A900006362054BA362054BE362054B246223633C
:10A9100010BD00BF31ADFF1F53ADFF1F8BADFF1F3B
:10A92000AFADFF1F014900F085B800BF89A8FF1F28
:10A9300070B54A1E682555430E4605F1740100F0B6
:10A9400049F9044640B10021C0E900160C30A0606E
:10A9500005F16802FFF77BFB204670BD836910B5E7
:10A96000044633BBC0E912330365124B124A1B681D
:10A970008262984204BF0123836100F01FF8606087
:10A98000204600F01BF8A060204600F017F80022D7
:10A99000E06004216068FFF7A1FF01220921A0689F
:10A9A000FFF79CFF02221221E068FFF797FF0123C7
:10A9B000A36110BDFCAFFF1F25A9FF1FF8B51B4BFE
:10A9C0001E68B369074613B93046FFF7C7FF48361C
:10A9D000D6E90134013B03D5336833B13668F7E774
:10A9E000B4F90C506DB16834F4E704213846FFF730
:10A9F0009FFF30600028F1D10C233B6004462046C5
:10AA0000F8BD0B4B6566C4E90055A560C4E9033584
:10AA1000C4E905550822294604F15C00FFF717FB3D
:10AA2000C4E90D55C4E91255E9E700BFFCAFFF1FAB
:10AA30000100FFFF2DE9F8438046894600F14804F4
:10AA4000002614B93046BDE8F883D4E90175013F0A
:10AA500001D52468F5E7AB89012B07D9B5F90E308C
:10AA6000013303D029464046C84706436835EEE720
:10AA700070B50E46B1F90E10002996B014461D4669
:10AA800007DA00232B60B3891A0610D44FF48063D1
:10AA90000EE06A4600F0B2F90028F2DB019A02F4F7
:10AAA0007042A2F500535A425A412A60EEE7402311
:10AAB0000020236016B070BD8B8973B59D070646D4
:10AAC0000C4607D504F1470323602361012363612A
:10AAD00002B070BD01AB6A46FFF7CAFF0099054698
:10AAE000304600F077F848B9B4F90C309A05EFD445
:10AAF00023F0030343F00203A381E3E70D4BB362AA
:10AB0000A389206043F08003A381009B6361019BC4
:10AB100020615BB1B4F90E10304600F081F928B124
:10AB2000A38923F0030343F00103A381A3891D43F9
:10AB3000A581CDE725A9FF1F38B50546002945D0D9
:10AB400051F8043C0C1F002BB8BFE41800F08AF940
:10AB50001F4A1368104633B9636014602846BDE885
:10AB6000384000F080B9A3420CD9216862189342A2
:10AB700004BF1A685B68636004BF521822600460F7
:10AB8000ECE713465A680AB1A242FAD91968581874
:10AB9000A0420BD120680144581882421960DDD1CF
:10ABA000106852685A6001441960D7E702D90C2333
:10ABB0002B60D3E7206821188A4204BF11685268CD
:10ABC000626004BF091821605C60C7E738BD00BF40
:10ABD0001452002070B5CD1C25F0030508350C2D4E
:10ABE00038BF0C25002D064601DBA94203D90C23F2
:10ABF0003360002070BD00F035F9214A1468214609
:10AC000091B9204C23681BB9304600F03DF8206014
:10AC10002946304600F038F8431C24D10C23336019
:10AC2000304600F020F9E4E70B685B1B18D40B2BCF
:10AC30000FD90B60CD50CC18304600F014F904F158
:10AC40000B00231D20F00700C31AD3D05A42E25054
:10AC5000D0E78C424B6816BF636013600C46EBE78D
:10AC60000C464968CCE7C41C24F00304A04205D07C
:10AC7000211A304600F008F80130CFD02560DBE71C
:10AC8000145200201852002038B5064C0023054607
:10AC90000846236000F02AF9431C02D1236803B15F
:10ACA0002B6038BD205200201F2938B504460D46C0
:10ACB00004D9162303604FF0FF3038BD426C12B147
:10ACC00052F821304BB9204600F030F82A460146B0
:10ACD0002046BDE8384000F017B8012B0AD0591CB7
:10ACE00003D1162303600120E7E7002442F8254042
:10ACF000284698470020E0E7024B01461868FFF716
:10AD0000D3BF00BF0C00002038B5074C0023054618
:10AD100008461146236000F0D9F8431C02D123688D
:10AD200003B12B6038BD00BF2052002000F0BEB838
:10AD300010B50C46B1F90E1000F096F80028ABBF24
:10AD4000636DA3891B1823F48053ACBF6365A38193
:10AD500010BD2DE9F0411F468B89DB0505460C46E9
:10AD6000164605D502230022B1F90E1000F068F84E
:10AD7000A389B4F90E1023F48053A38132463B46D5
:10AD80002846BDE8F04100F017B810B50C46B1F9FF
:10AD90000E1000F055F8431CA38915BF606523F41D
:10ADA000805343F48053A38118BFA38110BDB1F930
:10ADB0000E1000F013B8000038B5074C05460846E1
:10ADC0001146002222601A46FEF76EFD431C02D196
:10ADD000236803B12B6038BD2052002038B5064CE3
:10ADE000002305460846236000F050F8431C02D1BA
:10ADF000236803B12B6038BD2052002038B5074CC2
:10AE00000023054608461146236000F047F8431C1E
:10AE100002D1236803B12B6038BD00BF205200204F
:10AE200038B5064C002305460846236000F046F876
:10AE3000431C02D1236803B12B6038BD205200208F
:10AE400038B5074C054608461146002222601A46CE
:10AE500000F044F8431C02D1236803B12B6038BDD5
:10AE6000205200207047704738B5074C0546084609
:10AE70001146002222601A46FEF72AFD431C02D129
:10AE8000236803B12B6038BD20520020024B5822AA
:10AE90001A604FF0FF30704720520020024B5822BA
:10AEA0001A604FF0FF30704720520020024B5822AA
:10AEB0001A604FF0FF30704720520020024B58229A
:10AEC0001A600020704700BF20520020024B582219
:10AED0001A604FF0FF30704720520020024B58227A
:10AEE0001A604FF0FF30704720520020044A054995
:10AEF0001368002B08BF0B461844106018467047B3
:10AF00001C52002028520020FEE700BF0D0A4865B1
:10AF10006C6C6F20576F726C64210A0A0D005072BE
:10AF2000696E74205461736B0004030201000669AA
:10AF30006E6974436F6E666967002F686F6D652F69
:10AF4000616268697368656B2F75646F6F2F7564D4
:10AF50006F6F2D6E656F5F637573746F6D5F6C6976
:10AF60006E75782F6D342F4672656552544F535F5E
:10AF70004253505F312E302E315F694D5836535851
:10AF80002F706C6174666F726D2F64726976657272
:10AF9000732F7372632F756172745F696D782E639E
:10AFA00000554152545F496E69740049444C450054
:10AFB000546D725100546D7220537663002C2066DC
:10AFC000756E6374696F6E3A200061737365727495
:10AFD000696F6E2022257322206661696C65643A70
:10AFE0002066696C6520222573222C206C696E65B1
:10AFF000202564257325730A00000000100000203E
:10B00000232D302B2000686C4C0065666745464751
:10B0100000303132333435363738394142434445D4
:10B020004600303132333435363738396162636443
:10B030006566000000000000000000000000000045
:10B040000000000000000000000000000000000000
:10B0500000000000000000000000000000000000F0
:10B0600000000000000000000000000000000000E0
:10B0700000000000000000000000000000000000D0
:10B0800000000000000000000000000000000000C0
:10B0900000000000F8B500BFF8BC08BC9E46704731
:0CB0A000F8B500BFF8BC08BC9E46704725
:08B0AC00D4D1FF7F0100000078
:04B0B4006582FF1F93
:04B0B8004182FF1FB3
:10B0BC00AAAAAAAAF84F0000FFFFFFFF1000002069
:10B0CC000000000054B0FF1F74B0FF1F34B0FF1F0E
:10B0DC000000000000000000000000000000000064
:10B0EC000000000000000000000000000000000054
:10B0FC000000000000000000000000000000000044
:10B10C000000000000000000000000000000000033
:10B11C000000000000000000000000000000000023
:040000051FFF82F562
:00000001FF
